{"abi":[{"type":"function","name":"changeGroupNameAndDescription","inputs":[{"name":"oldName","type":"string","internalType":"string"},{"name":"_newName","type":"string","internalType":"string"},{"name":"_newDescription","type":"string","internalType":"string"}],"outputs":[],"stateMutability":"nonpayable"},{"type":"function","name":"createChat","inputs":[{"name":"newUser","type":"address","internalType":"address"}],"outputs":[],"stateMutability":"nonpayable"},{"type":"function","name":"createGroup","inputs":[{"name":"name","type":"string","internalType":"string"},{"name":"description","type":"string","internalType":"string"}],"outputs":[],"stateMutability":"nonpayable"},{"type":"function","name":"deleteChat","inputs":[{"name":"deletedUser","type":"address","internalType":"address"}],"outputs":[],"stateMutability":"nonpayable"},{"type":"function","name":"deleteGroup","inputs":[{"name":"groupToDelete","type":"string","internalType":"string"}],"outputs":[],"stateMutability":"nonpayable"},{"type":"function","name":"deleteMessage","inputs":[{"name":"user","type":"address","internalType":"address"},{"name":"messageToDelete","type":"string","internalType":"string"}],"outputs":[],"stateMutability":"nonpayable"},{"type":"function","name":"deleteMessageInTheGroup","inputs":[{"name":"groupToDeleteMessage","type":"string","internalType":"string"},{"name":"messageToBeDeleted","type":"string","internalType":"string"}],"outputs":[],"stateMutability":"nonpayable"},{"type":"function","name":"groups","inputs":[{"name":"","type":"uint256","internalType":"uint256"}],"outputs":[{"name":"name","type":"string","internalType":"string"},{"name":"description","type":"string","internalType":"string"},{"name":"groupOwner","type":"address","internalType":"address"}],"stateMutability":"view"},{"type":"function","name":"joinGroup","inputs":[{"name":"name","type":"string","internalType":"string"},{"name":"description","type":"string","internalType":"string"}],"outputs":[],"stateMutability":"nonpayable"},{"type":"function","name":"leaveGroup","inputs":[{"name":"name","type":"string","internalType":"string"}],"outputs":[],"stateMutability":"nonpayable"},{"type":"function","name":"modifyMessage","inputs":[{"name":"user","type":"address","internalType":"address"},{"name":"messageToModify","type":"string","internalType":"string"},{"name":"newMessage","type":"string","internalType":"string"}],"outputs":[],"stateMutability":"nonpayable"},{"type":"function","name":"modifyMessageInTheGroup","inputs":[{"name":"groupToModifyMessage","type":"string","internalType":"string"},{"name":"messageToBeModified","type":"string","internalType":"string"},{"name":"_newMessage","type":"string","internalType":"string"}],"outputs":[],"stateMutability":"nonpayable"},{"type":"function","name":"returnAllTheGroups","inputs":[],"outputs":[{"name":"","type":"tuple[]","internalType":"struct MessBlockGroups.Group[]","components":[{"name":"name","type":"string","internalType":"string"},{"name":"description","type":"string","internalType":"string"},{"name":"groupOwner","type":"address","internalType":"address"}]}],"stateMutability":"view"},{"type":"function","name":"returnChat","inputs":[{"name":"user","type":"address","internalType":"address"}],"outputs":[{"name":"","type":"tuple[]","internalType":"struct MessBlockChats.UserMessagges[]","components":[{"name":"message","type":"string","internalType":"string"},{"name":"messageSender","type":"address","internalType":"address"}]}],"stateMutability":"view"},{"type":"function","name":"returnGroupMessagges","inputs":[{"name":"groupToSendMessagges","type":"string","internalType":"string"}],"outputs":[{"name":"","type":"tuple[]","internalType":"struct MessBlockGroups.GroupMessages[]","components":[{"name":"groupName","type":"string","internalType":"string"},{"name":"sender","type":"address","internalType":"address"},{"name":"messages","type":"string","internalType":"string"}]}],"stateMutability":"view"},{"type":"function","name":"returnUserChats","inputs":[],"outputs":[{"name":"","type":"address[]","internalType":"address[]"}],"stateMutability":"view"},{"type":"function","name":"returnUserGroups","inputs":[],"outputs":[{"name":"","type":"tuple[]","internalType":"struct MessBlockGroups.Group[]","components":[{"name":"name","type":"string","internalType":"string"},{"name":"description","type":"string","internalType":"string"},{"name":"groupOwner","type":"address","internalType":"address"}]}],"stateMutability":"view"},{"type":"function","name":"returnUsersInAGroup","inputs":[{"name":"_group","type":"string","internalType":"string"}],"outputs":[{"name":"","type":"address[]","internalType":"address[]"}],"stateMutability":"view"},{"type":"function","name":"sendMessage","inputs":[{"name":"user","type":"address","internalType":"address"},{"name":"message","type":"string","internalType":"string"}],"outputs":[],"stateMutability":"nonpayable"},{"type":"function","name":"sendMessagesInAGroup","inputs":[{"name":"groupToSendMessagges","type":"string","internalType":"string"},{"name":"_newMessage","type":"string","internalType":"string"}],"outputs":[],"stateMutability":"nonpayable"},{"type":"event","name":"GroupCreated","inputs":[{"name":"owner","type":"address","indexed":false,"internalType":"address"},{"name":"name","type":"string","indexed":false,"internalType":"string"}],"anonymous":false},{"type":"event","name":"GroupDeleted","inputs":[{"name":"owner","type":"address","indexed":false,"internalType":"address"},{"name":"name","type":"string","indexed":false,"internalType":"string"}],"anonymous":false},{"type":"event","name":"UserJoinedGroup","inputs":[{"name":"joiner","type":"address","indexed":false,"internalType":"address"},{"name":"name","type":"string","indexed":false,"internalType":"string"}],"anonymous":false},{"type":"error","name":"AlreadyExistAGroupWithThatName","inputs":[]},{"type":"error","name":"CantCreateAChatWithHimself","inputs":[]},{"type":"error","name":"CantDeleteTheMessage","inputs":[]},{"type":"error","name":"CantDeleteTheMessageInTheGroup","inputs":[]},{"type":"error","name":"CantModifyTheMessage","inputs":[]},{"type":"error","name":"CantModifyTheMessageInTheGroup","inputs":[]},{"type":"error","name":"CantSendMessageInTheGroup","inputs":[]},{"type":"error","name":"CantSendMessageToHimself","inputs":[]},{"type":"error","name":"ErrorWhenChangingNameAndDescriptionGroup","inputs":[]},{"type":"error","name":"GroupsDoesNotExist","inputs":[]},{"type":"error","name":"GroupsNotDeletable","inputs":[]},{"type":"error","name":"SenderIsNotTheOwnerOfTheGroup","inputs":[]},{"type":"error","name":"UserAlreadyInAChat","inputs":[]},{"type":"error","name":"UserCantDeleteTheChat","inputs":[]},{"type":"error","name":"UserCantJoinAGropWhenHeIsAlreadyIn","inputs":[]},{"type":"error","name":"UserCantLeaveGroup","inputs":[{"name":"sender","type":"address","internalType":"address"},{"name":"name","type":"string","internalType":"string"}]},{"type":"error","name":"UserIsNotInAChat","inputs":[]}],"bytecode":{"object":"0x6080604052348015600e575f5ffd5b506152748061001c5f395ff3fe608060405234801561000f575f5ffd5b506004361061012a575f3560e01c80636e739dfd116100ab578063b25ed5a31161006f578063b25ed5a314610314578063db9feed414610330578063de6f24bb1461034c578063eaee16a514610368578063f370309d146103865761012a565b80636e739dfd1461025e57806385bd79b91461027a57806396324bd4146102965780639c6df476146102c8578063a646e7a6146102f85761012a565b80632e8b92a9116100f25780632e8b92a9146101d057806330cdacbd146101ec5780633e4835a71461020857806357cff607146102245780636d5a019b146102425761012a565b8063030932871461012e5780631362d53d1461015e5780631c5f90bb1461017c5780631e4a97dd14610198578063237156d5146101b4575b5f5ffd5b610148600480360381019061014391906143e1565b6103b6565b60405161015591906145d6565b60405180910390f35b6101666105a4565b6040516101739190614705565b60405180910390f35b61019660048036038101906101919190614725565b6107af565b005b6101b260048036038101906101ad9190614725565b6109ee565b005b6101ce60048036038101906101c991906147c5565b610d13565b005b6101ea60048036038101906101e591906143e1565b610f85565b005b61020660048036038101906102019190614725565b611300565b005b610222600480360381019061021d919061484d565b61174e565b005b61022c6119af565b6040516102399190614920565b60405180910390f35b61025c60048036038101906102579190614940565b611a74565b005b6102786004803603810190610273919061484d565b611eb3565b005b610294600480360381019061028f91906149e4565b6121f0565b005b6102b060048036038101906102ab9190614a71565b6126c0565b6040516102bf93929190614af3565b60405180910390f35b6102e260048036038101906102dd91906143e1565b612820565b6040516102ef9190614920565b60405180910390f35b610312600480360381019061030d9190614940565b6128c9565b005b61032e600480360381019061032991906143e1565b612a33565b005b61034a60048036038101906103459190614725565b612ec2565b005b610366600480360381019061036191906149e4565b61355e565b005b6103706139d1565b60405161037d9190614705565b60405180910390f35b6103a0600480360381019061039b919061484d565b613ba1565b6040516103ad9190614c2b565b60405180910390f35b60606004826040516103c89190614c85565b9081526020016040518091039020805480602002602001604051908101604052809291908181526020015f905b82821015610599578382905f5260205f2090600302016040518060600160405290815f8201805461042590614cc8565b80601f016020809104026020016040519081016040528092919081815260200182805461045190614cc8565b801561049c5780601f106104735761010080835404028352916020019161049c565b820191905f5260205f20905b81548152906001019060200180831161047f57829003601f168201915b50505050508152602001600182015f9054906101000a900473ffffffffffffffffffffffffffffffffffffffff1673ffffffffffffffffffffffffffffffffffffffff1673ffffffffffffffffffffffffffffffffffffffff16815260200160028201805461050a90614cc8565b80601f016020809104026020016040519081016040528092919081815260200182805461053690614cc8565b80156105815780601f1061055857610100808354040283529160200191610581565b820191905f5260205f20905b81548152906001019060200180831161056457829003601f168201915b505050505081525050815260200190600101906103f5565b505050509050919050565b606060035f3373ffffffffffffffffffffffffffffffffffffffff1673ffffffffffffffffffffffffffffffffffffffff1681526020019081526020015f20805480602002602001604051908101604052809291908181526020015f905b828210156107a6578382905f5260205f2090600302016040518060600160405290815f8201805461063290614cc8565b80601f016020809104026020016040519081016040528092919081815260200182805461065e90614cc8565b80156106a95780601f10610680576101008083540402835291602001916106a9565b820191905f5260205f20905b81548152906001019060200180831161068c57829003601f168201915b505050505081526020016001820180546106c290614cc8565b80601f01602080910402602001604051908101604052809291908181526020018280546106ee90614cc8565b80156107395780601f1061071057610100808354040283529160200191610739565b820191905f5260205f20905b81548152906001019060200180831161071c57829003601f168201915b50505050508152602001600282015f9054906101000a900473ffffffffffffffffffffffffffffffffffffffff1673ffffffffffffffffffffffffffffffffffffffff1673ffffffffffffffffffffffffffffffffffffffff168152505081526020019060010190610602565b50505050905090565b5f5f90505f5f90505b60035f3373ffffffffffffffffffffffffffffffffffffffff1673ffffffffffffffffffffffffffffffffffffffff1681526020019081526020015f20805490508110156109b157836040516020016108119190614c85565b6040516020818303038152906040528051906020012060035f3373ffffffffffffffffffffffffffffffffffffffff1673ffffffffffffffffffffffffffffffffffffffff1681526020019081526020015f20828154811061087657610875614cf8565b5b905f5260205f2090600302015f016040516020016108949190614db7565b60405160208183030381529060405280519060200120036109a4575f60405180606001604052808681526020013373ffffffffffffffffffffffffffffffffffffffff1681526020018581525090506004856040516108f39190614c85565b908152602001604051809103902081908060018154018082558091505060019003905f5260205f2090600302015f909190919091505f820151815f01908161093b9190614f5b565b506020820151816001015f6101000a81548173ffffffffffffffffffffffffffffffffffffffff021916908373ffffffffffffffffffffffffffffffffffffffff16021790555060408201518160020190816109979190614f5b565b50505060019250506109b1565b80806001019150506107b8565b50806109e9576040517fc604bd3c00000000000000000000000000000000000000000000000000000000815260040160405180910390fd5b505050565b5f5f90505b600280549050811015610ab35782604051602001610a119190614c85565b6040516020818303038152906040528051906020012060028281548110610a3b57610a3a614cf8565b5b905f5260205f2090600302015f01604051602001610a599190614db7565b6040516020818303038152906040528051906020012003610aa6576040517f8105347700000000000000000000000000000000000000000000000000000000815260040160405180910390fd5b80806001019150506109f3565b505f60405180606001604052808481526020018381526020013373ffffffffffffffffffffffffffffffffffffffff168152509050600281908060018154018082558091505060019003905f5260205f2090600302015f909190919091505f820151815f019081610b249190614f5b565b506020820151816001019081610b3a9190614f5b565b506040820151816002015f6101000a81548173ffffffffffffffffffffffffffffffffffffffff021916908373ffffffffffffffffffffffffffffffffffffffff160217905550505060035f3373ffffffffffffffffffffffffffffffffffffffff1673ffffffffffffffffffffffffffffffffffffffff1681526020019081526020015f2081908060018154018082558091505060019003905f5260205f2090600302015f909190919091505f820151815f019081610bfa9190614f5b565b506020820151816001019081610c109190614f5b565b506040820151816002015f6101000a81548173ffffffffffffffffffffffffffffffffffffffff021916908373ffffffffffffffffffffffffffffffffffffffff1602179055505050600583604051610c699190614c85565b908152602001604051809103902033908060018154018082558091505060019003905f5260205f20015f9091909190916101000a81548173ffffffffffffffffffffffffffffffffffffffff021916908373ffffffffffffffffffffffffffffffffffffffff1602179055507fc41039f832f30470d1a983be3dc26f5432197ae33f31f1170f73fccfd67439fb3384604051610d0692919061502a565b60405180910390a1505050565b5f5f90505f5f90505b60015f3373ffffffffffffffffffffffffffffffffffffffff1673ffffffffffffffffffffffffffffffffffffffff1681526020019081526020015f205f8673ffffffffffffffffffffffffffffffffffffffff1673ffffffffffffffffffffffffffffffffffffffff1681526020019081526020015f2080549050811015610f415783604051602001610db09190614c85565b6040516020818303038152906040528051906020012060015f3373ffffffffffffffffffffffffffffffffffffffff1673ffffffffffffffffffffffffffffffffffffffff1681526020019081526020015f205f8773ffffffffffffffffffffffffffffffffffffffff1673ffffffffffffffffffffffffffffffffffffffff1681526020019081526020015f208281548110610e5057610e4f614cf8565b5b905f5260205f2090600202015f01604051602001610e6e9190614db7565b6040516020818303038152906040528051906020012003610f34578260015f3373ffffffffffffffffffffffffffffffffffffffff1673ffffffffffffffffffffffffffffffffffffffff1681526020019081526020015f205f8773ffffffffffffffffffffffffffffffffffffffff1673ffffffffffffffffffffffffffffffffffffffff1681526020019081526020015f208281548110610f1457610f13614cf8565b5b905f5260205f2090600202015f019081610f2e9190614f5b565b50600191505b8080600101915050610d1c565b505f151581151503610f7f576040517fb81667d400000000000000000000000000000000000000000000000000000000815260040160405180910390fd5b50505050565b5f5f90505b6002805490508110156112ca5733604051602001610fa8919061509d565b6040516020818303038152906040528051906020012060028281548110610fd257610fd1614cf8565b5b905f5260205f2090600302016002015f9054906101000a900473ffffffffffffffffffffffffffffffffffffffff16604051602001611011919061509d565b604051602081830303815290604052805190602001201461105e576040517f90c5307500000000000000000000000000000000000000000000000000000000815260040160405180910390fd5b8160405160200161106f9190614c85565b604051602081830303815290604052805190602001206002828154811061109957611098614cf8565b5b905f5260205f2090600302015f016040516020016110b79190614db7565b60405160208183030381529060405280519060200120036112bd576110db82612a33565b600281815481106110ef576110ee614cf8565b5b905f5260205f2090600302015f5f82015f61110a91906141e8565b600182015f61111991906141e8565b600282015f6101000a81549073ffffffffffffffffffffffffffffffffffffffff021916905550506002600160028054905061115591906150e4565b8154811061116657611165614cf8565b5b905f5260205f2090600302016002828154811061118657611185614cf8565b5b905f5260205f2090600302015f8201815f0190816111a4919061512c565b50600182018160010190816111b9919061512c565b50600282015f9054906101000a900473ffffffffffffffffffffffffffffffffffffffff16816002015f6101000a81548173ffffffffffffffffffffffffffffffffffffffff021916908373ffffffffffffffffffffffffffffffffffffffff160217905550905050600280548061123457611233615211565b5b600190038181905f5260205f2090600302015f5f82015f61125591906141e8565b600182015f61126491906141e8565b600282015f6101000a81549073ffffffffffffffffffffffffffffffffffffffff02191690555050905560058260405161129e9190614c85565b90815260200160405180910390205f6112b79190614225565b506112fd565b8080600101915050610f8a565b506040517f77890b0d00000000000000000000000000000000000000000000000000000000815260040160405180910390fd5b50565b5f5f90505f5f90505b6004846040516113199190614c85565b90815260200160405180910390208054905081101561170a57826040516020016113439190614c85565b604051602081830303815290604052805190602001206004856040516113699190614c85565b9081526020016040518091039020828154811061138957611388614cf8565b5b905f5260205f2090600302016002016040516020016113a89190614db7565b60405160208183030381529060405280519060200120036116fd57336040516020016113d4919061509d565b604051602081830303815290604052805190602001206004856040516113fa9190614c85565b9081526020016040518091039020828154811061141a57611419614cf8565b5b905f5260205f2090600302016001015f9054906101000a900473ffffffffffffffffffffffffffffffffffffffff16604051602001611459919061509d565b6040516020818303038152906040528051906020012014611478575f5ffd5b6004846040516114889190614c85565b908152602001604051809103902081815481106114a8576114a7614cf8565b5b905f5260205f2090600302015f5f82015f6114c391906141e8565b600182015f6101000a81549073ffffffffffffffffffffffffffffffffffffffff0219169055600282015f6114f891906141e8565b5050600160048560405161150c9190614c85565b90815260200160405180910390208054905061152891906150e4565b81101561166a575f60016004866040516115429190614c85565b90815260200160405180910390208054905061155e91906150e4565b90506004856040516115709190614c85565b908152602001604051809103902081815481106115905761158f614cf8565b5b905f5260205f2090600302016004866040516115ac9190614c85565b908152602001604051809103902083815481106115cc576115cb614cf8565b5b905f5260205f2090600302015f8201815f0190816115ea919061512c565b50600182015f9054906101000a900473ffffffffffffffffffffffffffffffffffffffff16816001015f6101000a81548173ffffffffffffffffffffffffffffffffffffffff021916908373ffffffffffffffffffffffffffffffffffffffff16021790555060028201816002019081611664919061512c565b50905050505b60048460405161167a9190614c85565b908152602001604051809103902080548061169857611697615211565b5b600190038181905f5260205f2090600302015f5f82015f6116b991906141e8565b600182015f6101000a81549073ffffffffffffffffffffffffffffffffffffffff0219169055600282015f6116ee91906141e8565b5050905560019150505061174a565b8080600101915050611309565b505f151581151503611748576040517f5b48592800000000000000000000000000000000000000000000000000000000815260040160405180910390fd5b505b5050565b805f5f5f3373ffffffffffffffffffffffffffffffffffffffff1673ffffffffffffffffffffffffffffffffffffffff1681526020019081526020015f2080548060200260200160405190810160405280929190818152602001828054801561180957602002820191905f5260205f20905b815f9054906101000a900473ffffffffffffffffffffffffffffffffffffffff1673ffffffffffffffffffffffffffffffffffffffff16815260200190600101908083116117c0575b505050505090505f5f90505b81518110156118aa5781818151811061183157611830614cf8565b5b602002602001015173ffffffffffffffffffffffffffffffffffffffff168373ffffffffffffffffffffffffffffffffffffffff160361189d576040517f826e42ab00000000000000000000000000000000000000000000000000000000815260040160405180910390fd5b8080600101915050611815565b503373ffffffffffffffffffffffffffffffffffffffff168373ffffffffffffffffffffffffffffffffffffffff1603611910576040517f619bd0df00000000000000000000000000000000000000000000000000000000815260040160405180910390fd5b5f5f3373ffffffffffffffffffffffffffffffffffffffff1673ffffffffffffffffffffffffffffffffffffffff1681526020019081526020015f2083908060018154018082558091505060019003905f5260205f20015f9091909190916101000a81548173ffffffffffffffffffffffffffffffffffffffff021916908373ffffffffffffffffffffffffffffffffffffffff160217905550505050565b60605f5f3373ffffffffffffffffffffffffffffffffffffffff1673ffffffffffffffffffffffffffffffffffffffff1681526020019081526020015f20805480602002602001604051908101604052809291908181526020018280548015611a6a57602002820191905f5260205f20905b815f9054906101000a900473ffffffffffffffffffffffffffffffffffffffff1673ffffffffffffffffffffffffffffffffffffffff1681526020019060010190808311611a21575b5050505050905090565b5f5f90505f5f90505b600280549050811015611e6f575f5f90505b60035f3373ffffffffffffffffffffffffffffffffffffffff1673ffffffffffffffffffffffffffffffffffffffff1681526020019081526020015f2080549050811015611e615733604051602001611ae8919061509d565b6040516020818303038152906040528051906020012060028381548110611b1257611b11614cf8565b5b905f5260205f2090600302016002015f9054906101000a900473ffffffffffffffffffffffffffffffffffffffff16604051602001611b51919061509d565b6040516020818303038152906040528051906020012014611b9e576040517f90c5307500000000000000000000000000000000000000000000000000000000815260040160405180910390fd5b85604051602001611baf9190614c85565b6040516020818303038152906040528051906020012060028381548110611bd957611bd8614cf8565b5b905f5260205f2090600302015f01604051602001611bf79190614db7565b6040516020818303038152906040528051906020012003611e54575f60405180606001604052808781526020018681526020013373ffffffffffffffffffffffffffffffffffffffff1681525090508060028481548110611c5b57611c5a614cf8565b5b905f5260205f2090600302015f820151815f019081611c7a9190614f5b565b506020820151816001019081611c909190614f5b565b506040820151816002015f6101000a81548173ffffffffffffffffffffffffffffffffffffffff021916908373ffffffffffffffffffffffffffffffffffffffff1602179055509050508060035f3373ffffffffffffffffffffffffffffffffffffffff1673ffffffffffffffffffffffffffffffffffffffff1681526020019081526020015f208381548110611d2a57611d29614cf8565b5b905f5260205f2090600302015f820151815f019081611d499190614f5b565b506020820151816001019081611d5f9190614f5b565b506040820151816002015f6101000a81548173ffffffffffffffffffffffffffffffffffffffff021916908373ffffffffffffffffffffffffffffffffffffffff160217905550905050600587604051611db99190614c85565b90815260200160405180910390205f611dd29190614225565b600586604051611de29190614c85565b908152602001604051809103902033908060018154018082558091505060019003905f5260205f20015f9091909190916101000a81548173ffffffffffffffffffffffffffffffffffffffff021916908373ffffffffffffffffffffffffffffffffffffffff16021790555060019350505b8080600101915050611a8f565b508080600101915050611a7d565b505f151581151503611ead576040517ff8fe104400000000000000000000000000000000000000000000000000000000815260040160405180910390fd5b50505050565b5f5f90505f5f90505b5f5f3373ffffffffffffffffffffffffffffffffffffffff1673ffffffffffffffffffffffffffffffffffffffff1681526020019081526020015f20805490508110156121b45782604051602001611f14919061509d565b604051602081830303815290604052805190602001205f5f3373ffffffffffffffffffffffffffffffffffffffff1673ffffffffffffffffffffffffffffffffffffffff1681526020019081526020015f208281548110611f7857611f77614cf8565b5b905f5260205f20015f9054906101000a900473ffffffffffffffffffffffffffffffffffffffff16604051602001611fb0919061509d565b6040516020818303038152906040528051906020012003612129575f60015f5f3373ffffffffffffffffffffffffffffffffffffffff1673ffffffffffffffffffffffffffffffffffffffff1681526020019081526020015f208054905061201891906150e4565b90505f5f3373ffffffffffffffffffffffffffffffffffffffff1673ffffffffffffffffffffffffffffffffffffffff1681526020019081526020015f20818154811061206857612067614cf8565b5b905f5260205f20015f9054906101000a900473ffffffffffffffffffffffffffffffffffffffff165f5f3373ffffffffffffffffffffffffffffffffffffffff1673ffffffffffffffffffffffffffffffffffffffff1681526020019081526020015f2083815481106120de576120dd614cf8565b5b905f5260205f20015f6101000a81548173ffffffffffffffffffffffffffffffffffffffff021916908373ffffffffffffffffffffffffffffffffffffffff16021790555060019250505b5f5f3373ffffffffffffffffffffffffffffffffffffffff1673ffffffffffffffffffffffffffffffffffffffff1681526020019081526020015f2080548061217557612174615211565b5b600190038181905f5260205f20015f6101000a81549073ffffffffffffffffffffffffffffffffffffffff021916905590558080600101915050611ebc565b50806121ec576040517f2360510600000000000000000000000000000000000000000000000000000000815260040160405180910390fd5b5050565b5f5f90505f5f90505b60015f3373ffffffffffffffffffffffffffffffffffffffff1673ffffffffffffffffffffffffffffffffffffffff1681526020019081526020015f205f8573ffffffffffffffffffffffffffffffffffffffff1673ffffffffffffffffffffffffffffffffffffffff1681526020019081526020015f208054905081101561267d578260405160200161228d9190614c85565b6040516020818303038152906040528051906020012060015f3373ffffffffffffffffffffffffffffffffffffffff1673ffffffffffffffffffffffffffffffffffffffff1681526020019081526020015f205f8673ffffffffffffffffffffffffffffffffffffffff1673ffffffffffffffffffffffffffffffffffffffff1681526020019081526020015f20828154811061232d5761232c614cf8565b5b905f5260205f2090600202015f0160405160200161234b9190614db7565b604051602081830303815290604052805190602001200361259d575f6001805f3373ffffffffffffffffffffffffffffffffffffffff1673ffffffffffffffffffffffffffffffffffffffff1681526020019081526020015f205f8773ffffffffffffffffffffffffffffffffffffffff1673ffffffffffffffffffffffffffffffffffffffff1681526020019081526020015f20805490506123ee91906150e4565b905060015f3373ffffffffffffffffffffffffffffffffffffffff1673ffffffffffffffffffffffffffffffffffffffff1681526020019081526020015f205f8673ffffffffffffffffffffffffffffffffffffffff1673ffffffffffffffffffffffffffffffffffffffff1681526020019081526020015f20818154811061247a57612479614cf8565b5b905f5260205f20906002020160015f3373ffffffffffffffffffffffffffffffffffffffff1673ffffffffffffffffffffffffffffffffffffffff1681526020019081526020015f205f8773ffffffffffffffffffffffffffffffffffffffff1673ffffffffffffffffffffffffffffffffffffffff1681526020019081526020015f2083815481106125105761250f614cf8565b5b905f5260205f2090600202015f8201815f01908161252e919061512c565b50600182015f9054906101000a900473ffffffffffffffffffffffffffffffffffffffff16816001015f6101000a81548173ffffffffffffffffffffffffffffffffffffffff021916908373ffffffffffffffffffffffffffffffffffffffff16021790555090505060019250505b60015f3373ffffffffffffffffffffffffffffffffffffffff1673ffffffffffffffffffffffffffffffffffffffff1681526020019081526020015f205f8573ffffffffffffffffffffffffffffffffffffffff1673ffffffffffffffffffffffffffffffffffffffff1681526020019081526020015f2080548061262557612624615211565b5b600190038181905f5260205f2090600202015f5f82015f61264691906141e8565b600182015f6101000a81549073ffffffffffffffffffffffffffffffffffffffff02191690555050905580806001019150506121f9565b505f1515811515036126bb576040517feadadff300000000000000000000000000000000000000000000000000000000815260040160405180910390fd5b505050565b600281815481106126cf575f80fd5b905f5260205f2090600302015f91509050805f0180546126ee90614cc8565b80601f016020809104026020016040519081016040528092919081815260200182805461271a90614cc8565b80156127655780601f1061273c57610100808354040283529160200191612765565b820191905f5260205f20905b81548152906001019060200180831161274857829003601f168201915b50505050509080600101805461277a90614cc8565b80601f01602080910402602001604051908101604052809291908181526020018280546127a690614cc8565b80156127f15780601f106127c8576101008083540402835291602001916127f1565b820191905f5260205f20905b8154815290600101906020018083116127d457829003601f168201915b505050505090806002015f9054906101000a900473ffffffffffffffffffffffffffffffffffffffff16905083565b60606005826040516128329190614c85565b90815260200160405180910390208054806020026020016040519081016040528092919081815260200182805480156128bd57602002820191905f5260205f20905b815f9054906101000a900473ffffffffffffffffffffffffffffffffffffffff1673ffffffffffffffffffffffffffffffffffffffff1681526020019060010190808311612874575b50505050509050919050565b5f5f90505f5f90505b6004856040516128e29190614c85565b9081526020016040518091039020805490508110156129ef578360405160200161290c9190614c85565b604051602081830303815290604052805190602001206004866040516129329190614c85565b9081526020016040518091039020828154811061295257612951614cf8565b5b905f5260205f2090600302016002016040516020016129719190614db7565b60405160208183030381529060405280519060200120036129e2578260048660405161299d9190614c85565b908152602001604051809103902082815481106129bd576129bc614cf8565b5b905f5260205f20906003020160020190816129d89190614f5b565b50600191506129ef565b80806001019150506128d2565b505f151581151503612a2d576040517f67a2b86c00000000000000000000000000000000000000000000000000000000815260040160405180910390fd5b50505050565b612a3c81613f09565b5f5f90505b60035f3373ffffffffffffffffffffffffffffffffffffffff1673ffffffffffffffffffffffffffffffffffffffff1681526020019081526020015f2080549050811015612e7f5781604051602001612a9a9190614c85565b6040516020818303038152906040528051906020012060035f3373ffffffffffffffffffffffffffffffffffffffff1673ffffffffffffffffffffffffffffffffffffffff1681526020019081526020015f208281548110612aff57612afe614cf8565b5b905f5260205f2090600302015f01604051602001612b1d9190614db7565b6040516020818303038152906040528051906020012003612e725760035f3373ffffffffffffffffffffffffffffffffffffffff1673ffffffffffffffffffffffffffffffffffffffff1681526020019081526020015f208181548110612b8757612b86614cf8565b5b905f5260205f2090600302015f5f82015f612ba291906141e8565b600182015f612bb191906141e8565b600282015f6101000a81549073ffffffffffffffffffffffffffffffffffffffff02191690555050600160035f3373ffffffffffffffffffffffffffffffffffffffff1673ffffffffffffffffffffffffffffffffffffffff1681526020019081526020015f2080549050612c2691906150e4565b811015612dc5575f600160035f3373ffffffffffffffffffffffffffffffffffffffff1673ffffffffffffffffffffffffffffffffffffffff1681526020019081526020015f2080549050612c7b91906150e4565b905060035f3373ffffffffffffffffffffffffffffffffffffffff1673ffffffffffffffffffffffffffffffffffffffff1681526020019081526020015f208181548110612ccc57612ccb614cf8565b5b905f5260205f20906003020160035f3373ffffffffffffffffffffffffffffffffffffffff1673ffffffffffffffffffffffffffffffffffffffff1681526020019081526020015f208381548110612d2757612d26614cf8565b5b905f5260205f2090600302015f8201815f019081612d45919061512c565b5060018201816001019081612d5a919061512c565b50600282015f9054906101000a900473ffffffffffffffffffffffffffffffffffffffff16816002015f6101000a81548173ffffffffffffffffffffffffffffffffffffffff021916908373ffffffffffffffffffffffffffffffffffffffff160217905550905050505b60035f3373ffffffffffffffffffffffffffffffffffffffff1673ffffffffffffffffffffffffffffffffffffffff1681526020019081526020015f20805480612e1257612e11615211565b5b600190038181905f5260205f2090600302015f5f82015f612e3391906141e8565b600182015f612e4291906141e8565b600282015f6101000a81549073ffffffffffffffffffffffffffffffffffffffff02191690555050905550612ebf565b8080600101915050612a41565b5033816040517f5aec1ecb000000000000000000000000000000000000000000000000000000008152600401612eb692919061502a565b60405180910390fd5b50565b5f5f9050612ece614243565b5f5f90505b6002805490508110156130595784604051602001612ef19190614c85565b6040516020818303038152906040528051906020012060028281548110612f1b57612f1a614cf8565b5b905f5260205f2090600302015f01604051602001612f399190614db7565b60405160208183030381529060405280519060200120148015612fc9575083604051602001612f689190614c85565b6040516020818303038152906040528051906020012060028281548110612f9257612f91614cf8565b5b905f5260205f209060030201600101604051602001612fb19190614db7565b60405160208183030381529060405280519060200120145b1561304c57604051806060016040528086815260200185815260200160028381548110612ff957612ff8614cf8565b5b905f5260205f2090600302016002015f9054906101000a900473ffffffffffffffffffffffffffffffffffffffff1673ffffffffffffffffffffffffffffffffffffffff16815250915060019250613059565b8080600101915050612ed3565b505f60035f3373ffffffffffffffffffffffffffffffffffffffff1673ffffffffffffffffffffffffffffffffffffffff1681526020019081526020015f20805480602002602001604051908101604052809291908181526020015f905b8282101561325b578382905f5260205f2090600302016040518060600160405290815f820180546130e790614cc8565b80601f016020809104026020016040519081016040528092919081815260200182805461311390614cc8565b801561315e5780601f106131355761010080835404028352916020019161315e565b820191905f5260205f20905b81548152906001019060200180831161314157829003601f168201915b5050505050815260200160018201805461317790614cc8565b80601f01602080910402602001604051908101604052809291908181526020018280546131a390614cc8565b80156131ee5780601f106131c5576101008083540402835291602001916131ee565b820191905f5260205f20905b8154815290600101906020018083116131d157829003601f168201915b50505050508152602001600282015f9054906101000a900473ffffffffffffffffffffffffffffffffffffffff1673ffffffffffffffffffffffffffffffffffffffff1673ffffffffffffffffffffffffffffffffffffffff1681525050815260200190600101906130b7565b5050505090505f5f90505b815181101561339457856040516020016132809190614c85565b604051602081830303815290604052805190602001208282815181106132a9576132a8614cf8565b5b60200260200101515f01516040516020016132c49190614c85565b604051602081830303815290604052805190602001201480156133505750846040516020016132f39190614c85565b6040516020818303038152906040528051906020012082828151811061331c5761331b614cf8565b5b6020026020010151602001516040516020016133389190614c85565b60405160208183030381529060405280519060200120145b15613387576040517f0ab954ec00000000000000000000000000000000000000000000000000000000815260040160405180910390fd5b8080600101915050613266565b50826133cc576040517f07bb3bc500000000000000000000000000000000000000000000000000000000815260040160405180910390fd5b60035f3373ffffffffffffffffffffffffffffffffffffffff1673ffffffffffffffffffffffffffffffffffffffff1681526020019081526020015f2082908060018154018082558091505060019003905f5260205f2090600302015f909190919091505f820151815f0190816134439190614f5b565b5060208201518160010190816134599190614f5b565b506040820151816002015f6101000a81548173ffffffffffffffffffffffffffffffffffffffff021916908373ffffffffffffffffffffffffffffffffffffffff16021790555050506005856040516134b29190614c85565b908152602001604051809103902033908060018154018082558091505060019003905f5260205f20015f9091909190916101000a81548173ffffffffffffffffffffffffffffffffffffffff021916908373ffffffffffffffffffffffffffffffffffffffff1602179055507fe5c0a6e21f1e343dab0fdc368a66651d5a9ef3c484ef91a29ffb406488da3ce9338660405161354f92919061502a565b60405180910390a15050505050565b815f5f90505f5f90505b5f5f3373ffffffffffffffffffffffffffffffffffffffff1673ffffffffffffffffffffffffffffffffffffffff1681526020019081526020015f2080549050811015613669578273ffffffffffffffffffffffffffffffffffffffff165f5f3373ffffffffffffffffffffffffffffffffffffffff1673ffffffffffffffffffffffffffffffffffffffff1681526020019081526020015f20828154811061361457613613614cf8565b5b905f5260205f20015f9054906101000a900473ffffffffffffffffffffffffffffffffffffffff1673ffffffffffffffffffffffffffffffffffffffff160361365c57600191505b8080600101915050613568565b505f1515811515036136a7576040517f19547e9d00000000000000000000000000000000000000000000000000000000815260040160405180910390fd5b3373ffffffffffffffffffffffffffffffffffffffff168473ffffffffffffffffffffffffffffffffffffffff160361370c576040517fb653d5b900000000000000000000000000000000000000000000000000000000815260040160405180910390fd5b5f60405180604001604052808581526020013373ffffffffffffffffffffffffffffffffffffffff16815250905060015f3373ffffffffffffffffffffffffffffffffffffffff1673ffffffffffffffffffffffffffffffffffffffff1681526020019081526020015f205f8673ffffffffffffffffffffffffffffffffffffffff1673ffffffffffffffffffffffffffffffffffffffff1681526020019081526020015f2081908060018154018082558091505060019003905f5260205f2090600202015f909190919091505f820151815f0190816137ec9190614f5b565b506020820151816001015f6101000a81548173ffffffffffffffffffffffffffffffffffffffff021916908373ffffffffffffffffffffffffffffffffffffffff16021790555050505f5f8673ffffffffffffffffffffffffffffffffffffffff1673ffffffffffffffffffffffffffffffffffffffff1681526020019081526020015f2033908060018154018082558091505060019003905f5260205f20015f9091909190916101000a81548173ffffffffffffffffffffffffffffffffffffffff021916908373ffffffffffffffffffffffffffffffffffffffff16021790555060015f8673ffffffffffffffffffffffffffffffffffffffff1673ffffffffffffffffffffffffffffffffffffffff1681526020019081526020015f205f3373ffffffffffffffffffffffffffffffffffffffff1673ffffffffffffffffffffffffffffffffffffffff1681526020019081526020015f2081908060018154018082558091505060019003905f5260205f2090600202015f909190919091505f820151815f0190816139819190614f5b565b506020820151816001015f6101000a81548173ffffffffffffffffffffffffffffffffffffffff021916908373ffffffffffffffffffffffffffffffffffffffff16021790555050505050505050565b60606002805480602002602001604051908101604052809291908181526020015f905b82821015613b98578382905f5260205f2090600302016040518060600160405290815f82018054613a2490614cc8565b80601f0160208091040260200160405190810160405280929190818152602001828054613a5090614cc8565b8015613a9b5780601f10613a7257610100808354040283529160200191613a9b565b820191905f5260205f20905b815481529060010190602001808311613a7e57829003601f168201915b50505050508152602001600182018054613ab490614cc8565b80601f0160208091040260200160405190810160405280929190818152602001828054613ae090614cc8565b8015613b2b5780601f10613b0257610100808354040283529160200191613b2b565b820191905f5260205f20905b815481529060010190602001808311613b0e57829003601f168201915b50505050508152602001600282015f9054906101000a900473ffffffffffffffffffffffffffffffffffffffff1673ffffffffffffffffffffffffffffffffffffffff1673ffffffffffffffffffffffffffffffffffffffff1681525050815260200190600101906139f4565b50505050905090565b6060815f5f90505f5f90505b5f5f3373ffffffffffffffffffffffffffffffffffffffff1673ffffffffffffffffffffffffffffffffffffffff1681526020019081526020015f2080549050811015613cae578273ffffffffffffffffffffffffffffffffffffffff165f5f3373ffffffffffffffffffffffffffffffffffffffff1673ffffffffffffffffffffffffffffffffffffffff1681526020019081526020015f208281548110613c5957613c58614cf8565b5b905f5260205f20015f9054906101000a900473ffffffffffffffffffffffffffffffffffffffff1673ffffffffffffffffffffffffffffffffffffffff1603613ca157600191505b8080600101915050613bad565b505f151581151503613cec576040517f19547e9d00000000000000000000000000000000000000000000000000000000815260040160405180910390fd5b3373ffffffffffffffffffffffffffffffffffffffff168473ffffffffffffffffffffffffffffffffffffffff1603613d51576040517fb653d5b900000000000000000000000000000000000000000000000000000000815260040160405180910390fd5b60015f3373ffffffffffffffffffffffffffffffffffffffff1673ffffffffffffffffffffffffffffffffffffffff1681526020019081526020015f205f8573ffffffffffffffffffffffffffffffffffffffff1673ffffffffffffffffffffffffffffffffffffffff1681526020019081526020015f20805480602002602001604051908101604052809291908181526020015f905b82821015613efc578382905f5260205f2090600202016040518060400160405290815f82018054613e1890614cc8565b80601f0160208091040260200160405190810160405280929190818152602001828054613e4490614cc8565b8015613e8f5780601f10613e6657610100808354040283529160200191613e8f565b820191905f5260205f20905b815481529060010190602001808311613e7257829003601f168201915b50505050508152602001600182015f9054906101000a900473ffffffffffffffffffffffffffffffffffffffff1673ffffffffffffffffffffffffffffffffffffffff1673ffffffffffffffffffffffffffffffffffffffff168152505081526020019060010190613de8565b5050505092505050919050565b5f5f90505b600582604051613f1e9190614c85565b9081526020016040518091039020805490508110156141e35733604051602001613f48919061509d565b60405160208183030381529060405280519060200120600583604051613f6e9190614c85565b90815260200160405180910390208281548110613f8e57613f8d614cf8565b5b905f5260205f20015f9054906101000a900473ffffffffffffffffffffffffffffffffffffffff16604051602001613fc6919061509d565b60405160208183030381529060405280519060200120036141d657600582604051613ff19190614c85565b9081526020016040518091039020818154811061401157614010614cf8565b5b905f5260205f20015f6101000a81549073ffffffffffffffffffffffffffffffffffffffff0219169055600160058360405161404d9190614c85565b90815260200160405180910390208054905061406991906150e4565b811015614170575f60016005846040516140839190614c85565b90815260200160405180910390208054905061409f91906150e4565b90506005836040516140b19190614c85565b908152602001604051809103902081815481106140d1576140d0614cf8565b5b905f5260205f20015f9054906101000a900473ffffffffffffffffffffffffffffffffffffffff166005846040516141099190614c85565b9081526020016040518091039020838154811061412957614128614cf8565b5b905f5260205f20015f6101000a81548173ffffffffffffffffffffffffffffffffffffffff021916908373ffffffffffffffffffffffffffffffffffffffff160217905550505b6005826040516141809190614c85565b908152602001604051809103902080548061419e5761419d615211565b5b600190038181905f5260205f20015f6101000a81549073ffffffffffffffffffffffffffffffffffffffff02191690559055506141e5565b8080600101915050613f0e565b505b50565b5080546141f490614cc8565b5f825580601f106142055750614222565b601f0160209004905f5260205f20908101906142219190614279565b5b50565b5080545f8255905f5260205f20908101906142409190614279565b50565b604051806060016040528060608152602001606081526020015f73ffffffffffffffffffffffffffffffffffffffff1681525090565b5b80821115614290575f815f90555060010161427a565b5090565b5f604051905090565b5f5ffd5b5f5ffd5b5f5ffd5b5f5ffd5b5f601f19601f8301169050919050565b7f4e487b71000000000000000000000000000000000000000000000000000000005f52604160045260245ffd5b6142f3826142ad565b810181811067ffffffffffffffff82111715614312576143116142bd565b5b80604052505050565b5f614324614294565b905061433082826142ea565b919050565b5f67ffffffffffffffff82111561434f5761434e6142bd565b5b614358826142ad565b9050602081019050919050565b828183375f83830152505050565b5f61438561438084614335565b61431b565b9050828152602081018484840111156143a1576143a06142a9565b5b6143ac848285614365565b509392505050565b5f82601f8301126143c8576143c76142a5565b5b81356143d8848260208601614373565b91505092915050565b5f602082840312156143f6576143f561429d565b5b5f82013567ffffffffffffffff811115614413576144126142a1565b5b61441f848285016143b4565b91505092915050565b5f81519050919050565b5f82825260208201905092915050565b5f819050602082019050919050565b5f81519050919050565b5f82825260208201905092915050565b8281835e5f83830152505050565b5f61448382614451565b61448d818561445b565b935061449d81856020860161446b565b6144a6816142ad565b840191505092915050565b5f73ffffffffffffffffffffffffffffffffffffffff82169050919050565b5f6144da826144b1565b9050919050565b6144ea816144d0565b82525050565b5f606083015f8301518482035f86015261450a8282614479565b915050602083015161451f60208601826144e1565b50604083015184820360408601526145378282614479565b9150508091505092915050565b5f61454f83836144f0565b905092915050565b5f602082019050919050565b5f61456d82614428565b6145778185614432565b93508360208202850161458985614442565b805f5b858110156145c457848403895281516145a58582614544565b94506145b083614557565b925060208a0199505060018101905061458c565b50829750879550505050505092915050565b5f6020820190508181035f8301526145ee8184614563565b905092915050565b5f81519050919050565b5f82825260208201905092915050565b5f819050602082019050919050565b5f606083015f8301518482035f8601526146398282614479565b915050602083015184820360208601526146538282614479565b915050604083015161466860408601826144e1565b508091505092915050565b5f61467e838361461f565b905092915050565b5f602082019050919050565b5f61469c826145f6565b6146a68185614600565b9350836020820285016146b885614610565b805f5b858110156146f357848403895281516146d48582614673565b94506146df83614686565b925060208a019950506001810190506146bb565b50829750879550505050505092915050565b5f6020820190508181035f83015261471d8184614692565b905092915050565b5f5f6040838503121561473b5761473a61429d565b5b5f83013567ffffffffffffffff811115614758576147576142a1565b5b614764858286016143b4565b925050602083013567ffffffffffffffff811115614785576147846142a1565b5b614791858286016143b4565b9150509250929050565b6147a4816144d0565b81146147ae575f5ffd5b50565b5f813590506147bf8161479b565b92915050565b5f5f5f606084860312156147dc576147db61429d565b5b5f6147e9868287016147b1565b935050602084013567ffffffffffffffff81111561480a576148096142a1565b5b614816868287016143b4565b925050604084013567ffffffffffffffff811115614837576148366142a1565b5b614843868287016143b4565b9150509250925092565b5f602082840312156148625761486161429d565b5b5f61486f848285016147b1565b91505092915050565b5f81519050919050565b5f82825260208201905092915050565b5f819050602082019050919050565b5f6148ac83836144e1565b60208301905092915050565b5f602082019050919050565b5f6148ce82614878565b6148d88185614882565b93506148e383614892565b805f5b838110156149135781516148fa88826148a1565b9750614905836148b8565b9250506001810190506148e6565b5085935050505092915050565b5f6020820190508181035f83015261493881846148c4565b905092915050565b5f5f5f606084860312156149575761495661429d565b5b5f84013567ffffffffffffffff811115614974576149736142a1565b5b614980868287016143b4565b935050602084013567ffffffffffffffff8111156149a1576149a06142a1565b5b6149ad868287016143b4565b925050604084013567ffffffffffffffff8111156149ce576149cd6142a1565b5b6149da868287016143b4565b9150509250925092565b5f5f604083850312156149fa576149f961429d565b5b5f614a07858286016147b1565b925050602083013567ffffffffffffffff811115614a2857614a276142a1565b5b614a34858286016143b4565b9150509250929050565b5f819050919050565b614a5081614a3e565b8114614a5a575f5ffd5b50565b5f81359050614a6b81614a47565b92915050565b5f60208284031215614a8657614a8561429d565b5b5f614a9384828501614a5d565b91505092915050565b5f82825260208201905092915050565b5f614ab682614451565b614ac08185614a9c565b9350614ad081856020860161446b565b614ad9816142ad565b840191505092915050565b614aed816144d0565b82525050565b5f6060820190508181035f830152614b0b8186614aac565b90508181036020830152614b1f8185614aac565b9050614b2e6040830184614ae4565b949350505050565b5f81519050919050565b5f82825260208201905092915050565b5f819050602082019050919050565b5f604083015f8301518482035f860152614b798282614479565b9150506020830151614b8e60208601826144e1565b508091505092915050565b5f614ba48383614b5f565b905092915050565b5f602082019050919050565b5f614bc282614b36565b614bcc8185614b40565b935083602082028501614bde85614b50565b805f5b85811015614c195784840389528151614bfa8582614b99565b9450614c0583614bac565b925060208a01995050600181019050614be1565b50829750879550505050505092915050565b5f6020820190508181035f830152614c438184614bb8565b905092915050565b5f81905092915050565b5f614c5f82614451565b614c698185614c4b565b9350614c7981856020860161446b565b80840191505092915050565b5f614c908284614c55565b915081905092915050565b7f4e487b71000000000000000000000000000000000000000000000000000000005f52602260045260245ffd5b5f6002820490506001821680614cdf57607f821691505b602082108103614cf257614cf1614c9b565b5b50919050565b7f4e487b71000000000000000000000000000000000000000000000000000000005f52603260045260245ffd5b5f819050815f5260205f209050919050565b5f8154614d4381614cc8565b614d4d8186614c4b565b9450600182165f8114614d675760018114614d7c57614dae565b60ff1983168652811515820286019350614dae565b614d8585614d25565b5f5b83811015614da657815481890152600182019150602081019050614d87565b838801955050505b50505092915050565b5f614dc28284614d37565b915081905092915050565b5f6020601f8301049050919050565b5f82821b905092915050565b5f60088302614e177fffffffffffffffffffffffffffffffffffffffffffffffffffffffffffffffff82614ddc565b614e218683614ddc565b95508019841693508086168417925050509392505050565b5f819050919050565b5f614e5c614e57614e5284614a3e565b614e39565b614a3e565b9050919050565b5f819050919050565b614e7583614e42565b614e89614e8182614e63565b848454614de8565b825550505050565b5f5f905090565b614ea0614e91565b614eab818484614e6c565b505050565b5b81811015614ece57614ec35f82614e98565b600181019050614eb1565b5050565b601f821115614f1357614ee481614d25565b614eed84614dcd565b81016020851015614efc578190505b614f10614f0885614dcd565b830182614eb0565b50505b505050565b5f82821c905092915050565b5f614f335f1984600802614f18565b1980831691505092915050565b5f614f4b8383614f24565b9150826002028217905092915050565b614f6482614451565b67ffffffffffffffff811115614f7d57614f7c6142bd565b5b614f878254614cc8565b614f92828285614ed2565b5f60209050601f831160018114614fc3575f8415614fb1578287015190505b614fbb8582614f40565b865550615022565b601f198416614fd186614d25565b5f5b82811015614ff857848901518255600182019150602085019450602081019050614fd3565b868310156150155784890151615011601f891682614f24565b8355505b6001600288020188555050505b505050505050565b5f60408201905061503d5f830185614ae4565b818103602083015261504f8184614aac565b90509392505050565b5f8160601b9050919050565b5f61506e82615058565b9050919050565b5f61507f82615064565b9050919050565b615097615092826144d0565b615075565b82525050565b5f6150a88284615086565b60148201915081905092915050565b7f4e487b71000000000000000000000000000000000000000000000000000000005f52601160045260245ffd5b5f6150ee82614a3e565b91506150f983614a3e565b9250828203905081811115615111576151106150b7565b5b92915050565b5f8154905061512581614cc8565b9050919050565b81810361513a57505061520f565b61514382615117565b67ffffffffffffffff81111561515c5761515b6142bd565b5b6151668254614cc8565b615171828285614ed2565b5f601f83116001811461519e575f841561518c578287015490505b6151968582614f40565b865550615208565b601f1984166151ac87614d25565b96506151b786614d25565b5f5b828110156151de578489015482556001820191506001850194506020810190506151b9565b868310156151fb57848901546151f7601f891682614f24565b8355505b6001600288020188555050505b5050505050505b565b7f4e487b71000000000000000000000000000000000000000000000000000000005f52603160045260245ffdfea264697066735822122053e1d22b7d10c3da681c586e544829a4a787cd1b2f50d416c966aa3dae25faf464736f6c634300081c0033","linkReferences":{}},"methodIdentifiers":{"changeGroupNameAndDescription(string,string,string)":"6d5a019b","createChat(address)":"3e4835a7","createGroup(string,string)":"1e4a97dd","deleteChat(address)":"6e739dfd","deleteGroup(string)":"2e8b92a9","deleteMessage(address,string)":"85bd79b9","deleteMessageInTheGroup(string,string)":"30cdacbd","groups(uint256)":"96324bd4","joinGroup(string,string)":"db9feed4","leaveGroup(string)":"b25ed5a3","modifyMessage(address,string,string)":"237156d5","modifyMessageInTheGroup(string,string,string)":"a646e7a6","returnAllTheGroups()":"eaee16a5","returnChat(address)":"f370309d","returnGroupMessagges(string)":"03093287","returnUserChats()":"57cff607","returnUserGroups()":"1362d53d","returnUsersInAGroup(string)":"9c6df476","sendMessage(address,string)":"de6f24bb","sendMessagesInAGroup(string,string)":"1c5f90bb"},"id":19}