{"abi":[{"type":"function","name":"changeGroupNameAndDescription","inputs":[{"name":"oldName","type":"string","internalType":"string"},{"name":"_newName","type":"string","internalType":"string"},{"name":"_newDescription","type":"string","internalType":"string"}],"outputs":[],"stateMutability":"nonpayable"},{"type":"function","name":"createChat","inputs":[{"name":"newUser","type":"address","internalType":"address"}],"outputs":[],"stateMutability":"nonpayable"},{"type":"function","name":"createGroup","inputs":[{"name":"name","type":"string","internalType":"string"},{"name":"description","type":"string","internalType":"string"}],"outputs":[],"stateMutability":"nonpayable"},{"type":"function","name":"deleteChat","inputs":[{"name":"deletedUser","type":"address","internalType":"address"}],"outputs":[],"stateMutability":"nonpayable"},{"type":"function","name":"deleteGroup","inputs":[{"name":"groupToDelete","type":"string","internalType":"string"}],"outputs":[],"stateMutability":"nonpayable"},{"type":"function","name":"deleteMessage","inputs":[{"name":"user","type":"address","internalType":"address"},{"name":"messageToDelete","type":"string","internalType":"string"}],"outputs":[],"stateMutability":"nonpayable"},{"type":"function","name":"deleteMessageInTheGroup","inputs":[{"name":"groupToDeleteMessage","type":"string","internalType":"string"},{"name":"messageToBeDeleted","type":"string","internalType":"string"}],"outputs":[],"stateMutability":"nonpayable"},{"type":"function","name":"groups","inputs":[{"name":"","type":"uint256","internalType":"uint256"}],"outputs":[{"name":"name","type":"string","internalType":"string"},{"name":"description","type":"string","internalType":"string"},{"name":"groupOwner","type":"address","internalType":"address"}],"stateMutability":"view"},{"type":"function","name":"joinGroup","inputs":[{"name":"name","type":"string","internalType":"string"},{"name":"description","type":"string","internalType":"string"}],"outputs":[],"stateMutability":"nonpayable"},{"type":"function","name":"leaveGroup","inputs":[{"name":"name","type":"string","internalType":"string"}],"outputs":[],"stateMutability":"nonpayable"},{"type":"function","name":"modifyMessage","inputs":[{"name":"user","type":"address","internalType":"address"},{"name":"messageToModify","type":"string","internalType":"string"},{"name":"newMessage","type":"string","internalType":"string"}],"outputs":[],"stateMutability":"nonpayable"},{"type":"function","name":"modifyMessageInTheGroup","inputs":[{"name":"groupToModifyMessage","type":"string","internalType":"string"},{"name":"messageToBeModified","type":"string","internalType":"string"},{"name":"_newMessage","type":"string","internalType":"string"}],"outputs":[],"stateMutability":"nonpayable"},{"type":"function","name":"returnAllTheGroups","inputs":[],"outputs":[{"name":"","type":"tuple[]","internalType":"struct MessBlock.Group[]","components":[{"name":"name","type":"string","internalType":"string"},{"name":"description","type":"string","internalType":"string"},{"name":"groupOwner","type":"address","internalType":"address"}]}],"stateMutability":"view"},{"type":"function","name":"returnChat","inputs":[{"name":"user","type":"address","internalType":"address"}],"outputs":[{"name":"","type":"tuple[]","internalType":"struct MessBlock.UserMessagges[]","components":[{"name":"message","type":"string","internalType":"string"},{"name":"messageSender","type":"address","internalType":"address"}]}],"stateMutability":"view"},{"type":"function","name":"returnGroupMessagges","inputs":[{"name":"groupToSendMessagges","type":"string","internalType":"string"}],"outputs":[{"name":"","type":"tuple[]","internalType":"struct MessBlock.GroupMessages[]","components":[{"name":"groupName","type":"string","internalType":"string"},{"name":"sender","type":"address","internalType":"address"},{"name":"messages","type":"string","internalType":"string"}]}],"stateMutability":"view"},{"type":"function","name":"returnUserChats","inputs":[],"outputs":[{"name":"","type":"address[]","internalType":"address[]"}],"stateMutability":"view"},{"type":"function","name":"returnUserGroups","inputs":[],"outputs":[{"name":"","type":"tuple[]","internalType":"struct MessBlock.Group[]","components":[{"name":"name","type":"string","internalType":"string"},{"name":"description","type":"string","internalType":"string"},{"name":"groupOwner","type":"address","internalType":"address"}]}],"stateMutability":"view"},{"type":"function","name":"returnUsersInAGroup","inputs":[{"name":"_group","type":"string","internalType":"string"}],"outputs":[{"name":"","type":"address[]","internalType":"address[]"}],"stateMutability":"view"},{"type":"function","name":"sendMessage","inputs":[{"name":"user","type":"address","internalType":"address"},{"name":"message","type":"string","internalType":"string"}],"outputs":[],"stateMutability":"nonpayable"},{"type":"function","name":"sendMessagesInAGroup","inputs":[{"name":"groupToSendMessagges","type":"string","internalType":"string"},{"name":"_newMessage","type":"string","internalType":"string"}],"outputs":[],"stateMutability":"nonpayable"},{"type":"event","name":"GroupCreated","inputs":[{"name":"owner","type":"address","indexed":false,"internalType":"address"},{"name":"name","type":"string","indexed":false,"internalType":"string"}],"anonymous":false},{"type":"event","name":"GroupDeleted","inputs":[{"name":"owner","type":"address","indexed":false,"internalType":"address"},{"name":"name","type":"string","indexed":false,"internalType":"string"}],"anonymous":false},{"type":"event","name":"UserJoinedGroup","inputs":[{"name":"joiner","type":"address","indexed":false,"internalType":"address"},{"name":"name","type":"string","indexed":false,"internalType":"string"}],"anonymous":false},{"type":"error","name":"AlreadyExistAGroupWithThatName","inputs":[]},{"type":"error","name":"CantSendMessageInTheGroup","inputs":[]},{"type":"error","name":"ErrorWhenChangingNameAndDescriptionGroup","inputs":[]},{"type":"error","name":"ErrorWhenModifyMessageInGroups","inputs":[{"name":"group_","type":"string","internalType":"string"},{"name":"messageToModiy","type":"string","internalType":"string"},{"name":"newMessage","type":"string","internalType":"string"}]},{"type":"error","name":"GroupsNotDeletable","inputs":[]},{"type":"error","name":"UserAlreadyInAChat","inputs":[]},{"type":"error","name":"UserCantDeleteTheChat","inputs":[]},{"type":"error","name":"UserCantJoinAGropWhenHeIsAlreadyIn","inputs":[]},{"type":"error","name":"UserCantLeaveGroup","inputs":[{"name":"sender","type":"address","internalType":"address"},{"name":"name","type":"string","internalType":"string"}]},{"type":"error","name":"UserIsNotInAChat","inputs":[]}],"bytecode":{"object":"0x6080604052348015600e575f5ffd5b506157788061001c5f395ff3fe608060405234801561000f575f5ffd5b506004361061012a575f3560e01c80636e739dfd116100ab578063b25ed5a31161006f578063b25ed5a314610314578063db9feed414610330578063de6f24bb1461034c578063eaee16a514610368578063f370309d146103865761012a565b80636e739dfd1461025e57806385bd79b91461027a57806396324bd4146102965780639c6df476146102c8578063a646e7a6146102f85761012a565b80632e8b92a9116100f25780632e8b92a9146101d057806330cdacbd146101ec5780633e4835a71461020857806357cff607146102245780636d5a019b146102425761012a565b8063030932871461012e5780631362d53d1461015e5780631c5f90bb1461017c5780631e4a97dd14610198578063237156d5146101b4575b5f5ffd5b6101486004803603810190610143919061443d565b6103b6565b6040516101559190614632565b60405180910390f35b6101666105a4565b6040516101739190614761565b60405180910390f35b61019660048036038101906101919190614781565b6107af565b005b6101b260048036038101906101ad9190614781565b6109ee565b005b6101ce60048036038101906101c99190614821565b610d10565b005b6101ea60048036038101906101e5919061443d565b610f8b565b005b61020660048036038101906102019190614781565b611307565b005b610222600480360381019061021d91906148a9565b61175e565b005b61022c6119ca565b604051610239919061497c565b60405180910390f35b61025c6004803603810190610257919061499c565b611a90565b005b610278600480360381019061027391906148a9565b611edd565b005b610294600480360381019061028f9190614a40565b61221f565b005b6102b060048036038101906102ab9190614acd565b6126f9565b6040516102bf93929190614b4f565b60405180910390f35b6102e260048036038101906102dd919061443d565b612858565b6040516102ef919061497c565b60405180910390f35b610312600480360381019061030d919061499c565b612901565b005b61032e6004803603810190610329919061443d565b612a74565b005b61034a60048036038101906103459190614781565b612f03565b005b61036660048036038101906103619190614a40565b6135a4565b005b610370613a23565b60405161037d9190614761565b60405180910390f35b6103a0600480360381019061039b91906148a9565b613bf2565b6040516103ad9190614c87565b60405180910390f35b60606004826040516103c89190614ce1565b9081526020016040518091039020805480602002602001604051908101604052809291908181526020015f905b82821015610599578382905f5260205f2090600302016040518060600160405290815f8201805461042590614d24565b80601f016020809104026020016040519081016040528092919081815260200182805461045190614d24565b801561049c5780601f106104735761010080835404028352916020019161049c565b820191905f5260205f20905b81548152906001019060200180831161047f57829003601f168201915b50505050508152602001600182015f9054906101000a900473ffffffffffffffffffffffffffffffffffffffff1673ffffffffffffffffffffffffffffffffffffffff1673ffffffffffffffffffffffffffffffffffffffff16815260200160028201805461050a90614d24565b80601f016020809104026020016040519081016040528092919081815260200182805461053690614d24565b80156105815780601f1061055857610100808354040283529160200191610581565b820191905f5260205f20905b81548152906001019060200180831161056457829003601f168201915b505050505081525050815260200190600101906103f5565b505050509050919050565b606060035f3373ffffffffffffffffffffffffffffffffffffffff1673ffffffffffffffffffffffffffffffffffffffff1681526020019081526020015f20805480602002602001604051908101604052809291908181526020015f905b828210156107a6578382905f5260205f2090600302016040518060600160405290815f8201805461063290614d24565b80601f016020809104026020016040519081016040528092919081815260200182805461065e90614d24565b80156106a95780601f10610680576101008083540402835291602001916106a9565b820191905f5260205f20905b81548152906001019060200180831161068c57829003601f168201915b505050505081526020016001820180546106c290614d24565b80601f01602080910402602001604051908101604052809291908181526020018280546106ee90614d24565b80156107395780601f1061071057610100808354040283529160200191610739565b820191905f5260205f20905b81548152906001019060200180831161071c57829003601f168201915b50505050508152602001600282015f9054906101000a900473ffffffffffffffffffffffffffffffffffffffff1673ffffffffffffffffffffffffffffffffffffffff1673ffffffffffffffffffffffffffffffffffffffff168152505081526020019060010190610602565b50505050905090565b5f5f90505f5f90505b60035f3373ffffffffffffffffffffffffffffffffffffffff1673ffffffffffffffffffffffffffffffffffffffff1681526020019081526020015f20805490508110156109b157836040516020016108119190614ce1565b6040516020818303038152906040528051906020012060035f3373ffffffffffffffffffffffffffffffffffffffff1673ffffffffffffffffffffffffffffffffffffffff1681526020019081526020015f20828154811061087657610875614d54565b5b905f5260205f2090600302015f016040516020016108949190614e13565b60405160208183030381529060405280519060200120036109a4575f60405180606001604052808681526020013373ffffffffffffffffffffffffffffffffffffffff1681526020018581525090506004856040516108f39190614ce1565b908152602001604051809103902081908060018154018082558091505060019003905f5260205f2090600302015f909190919091505f820151815f01908161093b9190614fb7565b506020820151816001015f6101000a81548173ffffffffffffffffffffffffffffffffffffffff021916908373ffffffffffffffffffffffffffffffffffffffff16021790555060408201518160020190816109979190614fb7565b50505060019250506109b1565b80806001019150506107b8565b50806109e9576040517fc604bd3c00000000000000000000000000000000000000000000000000000000815260040160405180910390fd5b505050565b5f5f90505b5f80549050811015610ab15782604051602001610a109190614ce1565b604051602081830303815290604052805190602001205f8281548110610a3957610a38614d54565b5b905f5260205f2090600302015f01604051602001610a579190614e13565b6040516020818303038152906040528051906020012003610aa4576040517f8105347700000000000000000000000000000000000000000000000000000000815260040160405180910390fd5b80806001019150506109f3565b505f60405180606001604052808481526020018381526020013373ffffffffffffffffffffffffffffffffffffffff1681525090505f81908060018154018082558091505060019003905f5260205f2090600302015f909190919091505f820151815f019081610b219190614fb7565b506020820151816001019081610b379190614fb7565b506040820151816002015f6101000a81548173ffffffffffffffffffffffffffffffffffffffff021916908373ffffffffffffffffffffffffffffffffffffffff160217905550505060035f3373ffffffffffffffffffffffffffffffffffffffff1673ffffffffffffffffffffffffffffffffffffffff1681526020019081526020015f2081908060018154018082558091505060019003905f5260205f2090600302015f909190919091505f820151815f019081610bf79190614fb7565b506020820151816001019081610c0d9190614fb7565b506040820151816002015f6101000a81548173ffffffffffffffffffffffffffffffffffffffff021916908373ffffffffffffffffffffffffffffffffffffffff1602179055505050600583604051610c669190614ce1565b908152602001604051809103902033908060018154018082558091505060019003905f5260205f20015f9091909190916101000a81548173ffffffffffffffffffffffffffffffffffffffff021916908373ffffffffffffffffffffffffffffffffffffffff1602179055507fc41039f832f30470d1a983be3dc26f5432197ae33f31f1170f73fccfd67439fb3384604051610d03929190615086565b60405180910390a1505050565b5f5f90505f5f90505b60025f3373ffffffffffffffffffffffffffffffffffffffff1673ffffffffffffffffffffffffffffffffffffffff1681526020019081526020015f205f8673ffffffffffffffffffffffffffffffffffffffff1673ffffffffffffffffffffffffffffffffffffffff1681526020019081526020015f2080549050811015610f3e5783604051602001610dad9190614ce1565b6040516020818303038152906040528051906020012060025f3373ffffffffffffffffffffffffffffffffffffffff1673ffffffffffffffffffffffffffffffffffffffff1681526020019081526020015f205f8773ffffffffffffffffffffffffffffffffffffffff1673ffffffffffffffffffffffffffffffffffffffff1681526020019081526020015f208281548110610e4d57610e4c614d54565b5b905f5260205f2090600202015f01604051602001610e6b9190614e13565b6040516020818303038152906040528051906020012003610f31578260025f3373ffffffffffffffffffffffffffffffffffffffff1673ffffffffffffffffffffffffffffffffffffffff1681526020019081526020015f205f8773ffffffffffffffffffffffffffffffffffffffff1673ffffffffffffffffffffffffffffffffffffffff1681526020019081526020015f208281548110610f1157610f10614d54565b5b905f5260205f2090600202015f019081610f2b9190614fb7565b50600191505b8080600101915050610d19565b505f151581151503610f85576040517f08c379a0000000000000000000000000000000000000000000000000000000008152600401610f7c906150fe565b60405180910390fd5b50505050565b5f5f90505b5f805490508110156112d15733604051602001610fad9190615161565b604051602081830303815290604052805190602001205f8281548110610fd657610fd5614d54565b5b905f5260205f2090600302016002015f9054906101000a900473ffffffffffffffffffffffffffffffffffffffff166040516020016110159190615161565b604051602081830303815290604052805190602001201461106b576040517f08c379a0000000000000000000000000000000000000000000000000000000008152600401611062906151eb565b60405180910390fd5b8160405160200161107c9190614ce1565b604051602081830303815290604052805190602001205f82815481106110a5576110a4614d54565b5b905f5260205f2090600302015f016040516020016110c39190614e13565b60405160208183030381529060405280519060200120036112c4576110e782612a74565b5f81815481106110fa576110f9614d54565b5b905f5260205f2090600302015f5f82015f6111159190614244565b600182015f6111249190614244565b600282015f6101000a81549073ffffffffffffffffffffffffffffffffffffffff021916905550505f60015f8054905061115e9190615236565b8154811061116f5761116e614d54565b5b905f5260205f2090600302015f828154811061118e5761118d614d54565b5b905f5260205f2090600302015f8201815f0190816111ac919061527e565b50600182018160010190816111c1919061527e565b50600282015f9054906101000a900473ffffffffffffffffffffffffffffffffffffffff16816002015f6101000a81548173ffffffffffffffffffffffffffffffffffffffff021916908373ffffffffffffffffffffffffffffffffffffffff1602179055509050505f80548061123b5761123a615363565b5b600190038181905f5260205f2090600302015f5f82015f61125c9190614244565b600182015f61126b9190614244565b600282015f6101000a81549073ffffffffffffffffffffffffffffffffffffffff0219169055505090556005826040516112a59190614ce1565b90815260200160405180910390205f6112be9190614281565b50611304565b8080600101915050610f90565b506040517f77890b0d00000000000000000000000000000000000000000000000000000000815260040160405180910390fd5b50565b5f5f90505f5f90505b6004846040516113209190614ce1565b908152602001604051809103902080549050811015611711578260405160200161134a9190614ce1565b604051602081830303815290604052805190602001206004856040516113709190614ce1565b908152602001604051809103902082815481106113905761138f614d54565b5b905f5260205f2090600302016002016040516020016113af9190614e13565b604051602081830303815290604052805190602001200361170457336040516020016113db9190615161565b604051602081830303815290604052805190602001206004856040516114019190614ce1565b9081526020016040518091039020828154811061142157611420614d54565b5b905f5260205f2090600302016001015f9054906101000a900473ffffffffffffffffffffffffffffffffffffffff166040516020016114609190615161565b604051602081830303815290604052805190602001201461147f575f5ffd5b60048460405161148f9190614ce1565b908152602001604051809103902081815481106114af576114ae614d54565b5b905f5260205f2090600302015f5f82015f6114ca9190614244565b600182015f6101000a81549073ffffffffffffffffffffffffffffffffffffffff0219169055600282015f6114ff9190614244565b505060016004856040516115139190614ce1565b90815260200160405180910390208054905061152f9190615236565b811015611671575f60016004866040516115499190614ce1565b9081526020016040518091039020805490506115659190615236565b90506004856040516115779190614ce1565b9081526020016040518091039020818154811061159757611596614d54565b5b905f5260205f2090600302016004866040516115b39190614ce1565b908152602001604051809103902083815481106115d3576115d2614d54565b5b905f5260205f2090600302015f8201815f0190816115f1919061527e565b50600182015f9054906101000a900473ffffffffffffffffffffffffffffffffffffffff16816001015f6101000a81548173ffffffffffffffffffffffffffffffffffffffff021916908373ffffffffffffffffffffffffffffffffffffffff1602179055506002820181600201908161166b919061527e565b50905050505b6004846040516116819190614ce1565b908152602001604051809103902080548061169f5761169e615363565b5b600190038181905f5260205f2090600302015f5f82015f6116c09190614244565b600182015f6101000a81549073ffffffffffffffffffffffffffffffffffffffff0219169055600282015f6116f59190614244565b5050905560019150505061175a565b8080600101915050611310565b505f151581151503611758576040517f08c379a000000000000000000000000000000000000000000000000000000000815260040161174f906153da565b60405180910390fd5b505b5050565b805f60015f3373ffffffffffffffffffffffffffffffffffffffff1673ffffffffffffffffffffffffffffffffffffffff1681526020019081526020015f2080548060200260200160405190810160405280929190818152602001828054801561181a57602002820191905f5260205f20905b815f9054906101000a900473ffffffffffffffffffffffffffffffffffffffff1673ffffffffffffffffffffffffffffffffffffffff16815260200190600101908083116117d1575b505050505090505f5f90505b81518110156118bb5781818151811061184257611841614d54565b5b602002602001015173ffffffffffffffffffffffffffffffffffffffff168373ffffffffffffffffffffffffffffffffffffffff16036118ae576040517f826e42ab00000000000000000000000000000000000000000000000000000000815260040160405180910390fd5b8080600101915050611826565b503373ffffffffffffffffffffffffffffffffffffffff168373ffffffffffffffffffffffffffffffffffffffff160361192a576040517f08c379a000000000000000000000000000000000000000000000000000000000815260040161192190615442565b60405180910390fd5b60015f3373ffffffffffffffffffffffffffffffffffffffff1673ffffffffffffffffffffffffffffffffffffffff1681526020019081526020015f2083908060018154018082558091505060019003905f5260205f20015f9091909190916101000a81548173ffffffffffffffffffffffffffffffffffffffff021916908373ffffffffffffffffffffffffffffffffffffffff160217905550505050565b606060015f3373ffffffffffffffffffffffffffffffffffffffff1673ffffffffffffffffffffffffffffffffffffffff1681526020019081526020015f20805480602002602001604051908101604052809291908181526020018280548015611a8657602002820191905f5260205f20905b815f9054906101000a900473ffffffffffffffffffffffffffffffffffffffff1673ffffffffffffffffffffffffffffffffffffffff1681526020019060010190808311611a3d575b5050505050905090565b5f5f90505f5f90505b5f80549050811015611e90575f5f90505b60035f3373ffffffffffffffffffffffffffffffffffffffff1673ffffffffffffffffffffffffffffffffffffffff1681526020019081526020015f2080549050811015611e825733604051602001611b039190615161565b604051602081830303815290604052805190602001205f8381548110611b2c57611b2b614d54565b5b905f5260205f2090600302016002015f9054906101000a900473ffffffffffffffffffffffffffffffffffffffff16604051602001611b6b9190615161565b6040516020818303038152906040528051906020012014611bc1576040517f08c379a0000000000000000000000000000000000000000000000000000000008152600401611bb8906154d0565b60405180910390fd5b85604051602001611bd29190614ce1565b604051602081830303815290604052805190602001205f8381548110611bfb57611bfa614d54565b5b905f5260205f2090600302015f01604051602001611c199190614e13565b6040516020818303038152906040528051906020012003611e75575f60405180606001604052808781526020018681526020013373ffffffffffffffffffffffffffffffffffffffff168152509050805f8481548110611c7c57611c7b614d54565b5b905f5260205f2090600302015f820151815f019081611c9b9190614fb7565b506020820151816001019081611cb19190614fb7565b506040820151816002015f6101000a81548173ffffffffffffffffffffffffffffffffffffffff021916908373ffffffffffffffffffffffffffffffffffffffff1602179055509050508060035f3373ffffffffffffffffffffffffffffffffffffffff1673ffffffffffffffffffffffffffffffffffffffff1681526020019081526020015f208381548110611d4b57611d4a614d54565b5b905f5260205f2090600302015f820151815f019081611d6a9190614fb7565b506020820151816001019081611d809190614fb7565b506040820151816002015f6101000a81548173ffffffffffffffffffffffffffffffffffffffff021916908373ffffffffffffffffffffffffffffffffffffffff160217905550905050600587604051611dda9190614ce1565b90815260200160405180910390205f611df39190614281565b600586604051611e039190614ce1565b908152602001604051809103902033908060018154018082558091505060019003905f5260205f20015f9091909190916101000a81548173ffffffffffffffffffffffffffffffffffffffff021916908373ffffffffffffffffffffffffffffffffffffffff16021790555060019350505b8080600101915050611aaa565b508080600101915050611a99565b505f151581151503611ed7576040517f08c379a0000000000000000000000000000000000000000000000000000000008152600401611ece9061555e565b60405180910390fd5b50505050565b5f5f90505f5f90505b60015f3373ffffffffffffffffffffffffffffffffffffffff1673ffffffffffffffffffffffffffffffffffffffff1681526020019081526020015f20805490508110156121e35782604051602001611f3f9190615161565b6040516020818303038152906040528051906020012060015f3373ffffffffffffffffffffffffffffffffffffffff1673ffffffffffffffffffffffffffffffffffffffff1681526020019081526020015f208281548110611fa457611fa3614d54565b5b905f5260205f20015f9054906101000a900473ffffffffffffffffffffffffffffffffffffffff16604051602001611fdc9190615161565b6040516020818303038152906040528051906020012003612157575f6001805f3373ffffffffffffffffffffffffffffffffffffffff1673ffffffffffffffffffffffffffffffffffffffff1681526020019081526020015f20805490506120449190615236565b905060015f3373ffffffffffffffffffffffffffffffffffffffff1673ffffffffffffffffffffffffffffffffffffffff1681526020019081526020015f20818154811061209557612094614d54565b5b905f5260205f20015f9054906101000a900473ffffffffffffffffffffffffffffffffffffffff1660015f3373ffffffffffffffffffffffffffffffffffffffff1673ffffffffffffffffffffffffffffffffffffffff1681526020019081526020015f20838154811061210c5761210b614d54565b5b905f5260205f20015f6101000a81548173ffffffffffffffffffffffffffffffffffffffff021916908373ffffffffffffffffffffffffffffffffffffffff16021790555060019250505b60015f3373ffffffffffffffffffffffffffffffffffffffff1673ffffffffffffffffffffffffffffffffffffffff1681526020019081526020015f208054806121a4576121a3615363565b5b600190038181905f5260205f20015f6101000a81549073ffffffffffffffffffffffffffffffffffffffff021916905590558080600101915050611ee6565b508061221b576040517f2360510600000000000000000000000000000000000000000000000000000000815260040160405180910390fd5b5050565b5f5f90505f5f90505b60025f3373ffffffffffffffffffffffffffffffffffffffff1673ffffffffffffffffffffffffffffffffffffffff1681526020019081526020015f205f8573ffffffffffffffffffffffffffffffffffffffff1673ffffffffffffffffffffffffffffffffffffffff1681526020019081526020015f20805490508110156126ad57826040516020016122bc9190614ce1565b6040516020818303038152906040528051906020012060025f3373ffffffffffffffffffffffffffffffffffffffff1673ffffffffffffffffffffffffffffffffffffffff1681526020019081526020015f205f8673ffffffffffffffffffffffffffffffffffffffff1673ffffffffffffffffffffffffffffffffffffffff1681526020019081526020015f20828154811061235c5761235b614d54565b5b905f5260205f2090600202015f0160405160200161237a9190614e13565b60405160208183030381529060405280519060200120036125cd575f600160025f3373ffffffffffffffffffffffffffffffffffffffff1673ffffffffffffffffffffffffffffffffffffffff1681526020019081526020015f205f8773ffffffffffffffffffffffffffffffffffffffff1673ffffffffffffffffffffffffffffffffffffffff1681526020019081526020015f208054905061241e9190615236565b905060025f3373ffffffffffffffffffffffffffffffffffffffff1673ffffffffffffffffffffffffffffffffffffffff1681526020019081526020015f205f8673ffffffffffffffffffffffffffffffffffffffff1673ffffffffffffffffffffffffffffffffffffffff1681526020019081526020015f2081815481106124aa576124a9614d54565b5b905f5260205f20906002020160025f3373ffffffffffffffffffffffffffffffffffffffff1673ffffffffffffffffffffffffffffffffffffffff1681526020019081526020015f205f8773ffffffffffffffffffffffffffffffffffffffff1673ffffffffffffffffffffffffffffffffffffffff1681526020019081526020015f2083815481106125405761253f614d54565b5b905f5260205f2090600202015f8201815f01908161255e919061527e565b50600182015f9054906101000a900473ffffffffffffffffffffffffffffffffffffffff16816001015f6101000a81548173ffffffffffffffffffffffffffffffffffffffff021916908373ffffffffffffffffffffffffffffffffffffffff16021790555090505060019250505b60025f3373ffffffffffffffffffffffffffffffffffffffff1673ffffffffffffffffffffffffffffffffffffffff1681526020019081526020015f205f8573ffffffffffffffffffffffffffffffffffffffff1673ffffffffffffffffffffffffffffffffffffffff1681526020019081526020015f2080548061265557612654615363565b5b600190038181905f5260205f2090600202015f5f82015f6126769190614244565b600182015f6101000a81549073ffffffffffffffffffffffffffffffffffffffff0219169055505090558080600101915050612228565b505f1515811515036126f4576040517f08c379a00000000000000000000000000000000000000000000000000000000081526004016126eb906153da565b60405180910390fd5b505050565b5f8181548110612707575f80fd5b905f5260205f2090600302015f91509050805f01805461272690614d24565b80601f016020809104026020016040519081016040528092919081815260200182805461275290614d24565b801561279d5780601f106127745761010080835404028352916020019161279d565b820191905f5260205f20905b81548152906001019060200180831161278057829003601f168201915b5050505050908060010180546127b290614d24565b80601f01602080910402602001604051908101604052809291908181526020018280546127de90614d24565b80156128295780601f1061280057610100808354040283529160200191612829565b820191905f5260205f20905b81548152906001019060200180831161280c57829003601f168201915b505050505090806002015f9054906101000a900473ffffffffffffffffffffffffffffffffffffffff16905083565b606060058260405161286a9190614ce1565b90815260200160405180910390208054806020026020016040519081016040528092919081815260200182805480156128f557602002820191905f5260205f20905b815f9054906101000a900473ffffffffffffffffffffffffffffffffffffffff1673ffffffffffffffffffffffffffffffffffffffff16815260200190600101908083116128ac575b50505050509050919050565b5f5f90505f5f90505b60048560405161291a9190614ce1565b908152602001604051809103902080549050811015612a2757836040516020016129449190614ce1565b6040516020818303038152906040528051906020012060048660405161296a9190614ce1565b9081526020016040518091039020828154811061298a57612989614d54565b5b905f5260205f2090600302016002016040516020016129a99190614e13565b6040516020818303038152906040528051906020012003612a1a57826004866040516129d59190614ce1565b908152602001604051809103902082815481106129f5576129f4614d54565b5b905f5260205f2090600302016002019081612a109190614fb7565b5060019150612a27565b808060010191505061290a565b505f151581151503612a6e576040517f08c379a0000000000000000000000000000000000000000000000000000000008152600401612a65906155ec565b60405180910390fd5b50505050565b612a7d81613f65565b5f5f90505b60035f3373ffffffffffffffffffffffffffffffffffffffff1673ffffffffffffffffffffffffffffffffffffffff1681526020019081526020015f2080549050811015612ec05781604051602001612adb9190614ce1565b6040516020818303038152906040528051906020012060035f3373ffffffffffffffffffffffffffffffffffffffff1673ffffffffffffffffffffffffffffffffffffffff1681526020019081526020015f208281548110612b4057612b3f614d54565b5b905f5260205f2090600302015f01604051602001612b5e9190614e13565b6040516020818303038152906040528051906020012003612eb35760035f3373ffffffffffffffffffffffffffffffffffffffff1673ffffffffffffffffffffffffffffffffffffffff1681526020019081526020015f208181548110612bc857612bc7614d54565b5b905f5260205f2090600302015f5f82015f612be39190614244565b600182015f612bf29190614244565b600282015f6101000a81549073ffffffffffffffffffffffffffffffffffffffff02191690555050600160035f3373ffffffffffffffffffffffffffffffffffffffff1673ffffffffffffffffffffffffffffffffffffffff1681526020019081526020015f2080549050612c679190615236565b811015612e06575f600160035f3373ffffffffffffffffffffffffffffffffffffffff1673ffffffffffffffffffffffffffffffffffffffff1681526020019081526020015f2080549050612cbc9190615236565b905060035f3373ffffffffffffffffffffffffffffffffffffffff1673ffffffffffffffffffffffffffffffffffffffff1681526020019081526020015f208181548110612d0d57612d0c614d54565b5b905f5260205f20906003020160035f3373ffffffffffffffffffffffffffffffffffffffff1673ffffffffffffffffffffffffffffffffffffffff1681526020019081526020015f208381548110612d6857612d67614d54565b5b905f5260205f2090600302015f8201815f019081612d86919061527e565b5060018201816001019081612d9b919061527e565b50600282015f9054906101000a900473ffffffffffffffffffffffffffffffffffffffff16816002015f6101000a81548173ffffffffffffffffffffffffffffffffffffffff021916908373ffffffffffffffffffffffffffffffffffffffff160217905550905050505b60035f3373ffffffffffffffffffffffffffffffffffffffff1673ffffffffffffffffffffffffffffffffffffffff1681526020019081526020015f20805480612e5357612e52615363565b5b600190038181905f5260205f2090600302015f5f82015f612e749190614244565b600182015f612e839190614244565b600282015f6101000a81549073ffffffffffffffffffffffffffffffffffffffff02191690555050905550612f00565b8080600101915050612a82565b5033816040517f5aec1ecb000000000000000000000000000000000000000000000000000000008152600401612ef7929190615086565b60405180910390fd5b50565b5f5f9050612f0f61429f565b5f5f90505b5f805490508110156130965784604051602001612f319190614ce1565b604051602081830303815290604052805190602001205f8281548110612f5a57612f59614d54565b5b905f5260205f2090600302015f01604051602001612f789190614e13565b60405160208183030381529060405280519060200120148015613007575083604051602001612fa79190614ce1565b604051602081830303815290604052805190602001205f8281548110612fd057612fcf614d54565b5b905f5260205f209060030201600101604051602001612fef9190614e13565b60405160208183030381529060405280519060200120145b156130895760405180606001604052808681526020018581526020015f838154811061303657613035614d54565b5b905f5260205f2090600302016002015f9054906101000a900473ffffffffffffffffffffffffffffffffffffffff1673ffffffffffffffffffffffffffffffffffffffff16815250915060019250613096565b8080600101915050612f14565b505f60035f3373ffffffffffffffffffffffffffffffffffffffff1673ffffffffffffffffffffffffffffffffffffffff1681526020019081526020015f20805480602002602001604051908101604052809291908181526020015f905b82821015613298578382905f5260205f2090600302016040518060600160405290815f8201805461312490614d24565b80601f016020809104026020016040519081016040528092919081815260200182805461315090614d24565b801561319b5780601f106131725761010080835404028352916020019161319b565b820191905f5260205f20905b81548152906001019060200180831161317e57829003601f168201915b505050505081526020016001820180546131b490614d24565b80601f01602080910402602001604051908101604052809291908181526020018280546131e090614d24565b801561322b5780601f106132025761010080835404028352916020019161322b565b820191905f5260205f20905b81548152906001019060200180831161320e57829003601f168201915b50505050508152602001600282015f9054906101000a900473ffffffffffffffffffffffffffffffffffffffff1673ffffffffffffffffffffffffffffffffffffffff1673ffffffffffffffffffffffffffffffffffffffff1681525050815260200190600101906130f4565b5050505090505f5f90505b81518110156133d157856040516020016132bd9190614ce1565b604051602081830303815290604052805190602001208282815181106132e6576132e5614d54565b5b60200260200101515f01516040516020016133019190614ce1565b6040516020818303038152906040528051906020012014801561338d5750846040516020016133309190614ce1565b6040516020818303038152906040528051906020012082828151811061335957613358614d54565b5b6020026020010151602001516040516020016133759190614ce1565b60405160208183030381529060405280519060200120145b156133c4576040517f0ab954ec00000000000000000000000000000000000000000000000000000000815260040160405180910390fd5b80806001019150506132a3565b5082613412576040517f08c379a000000000000000000000000000000000000000000000000000000000815260040161340990615654565b60405180910390fd5b60035f3373ffffffffffffffffffffffffffffffffffffffff1673ffffffffffffffffffffffffffffffffffffffff1681526020019081526020015f2082908060018154018082558091505060019003905f5260205f2090600302015f909190919091505f820151815f0190816134899190614fb7565b50602082015181600101908161349f9190614fb7565b506040820151816002015f6101000a81548173ffffffffffffffffffffffffffffffffffffffff021916908373ffffffffffffffffffffffffffffffffffffffff16021790555050506005856040516134f89190614ce1565b908152602001604051809103902033908060018154018082558091505060019003905f5260205f20015f9091909190916101000a81548173ffffffffffffffffffffffffffffffffffffffff021916908373ffffffffffffffffffffffffffffffffffffffff1602179055507fe5c0a6e21f1e343dab0fdc368a66651d5a9ef3c484ef91a29ffb406488da3ce93386604051613595929190615086565b60405180910390a15050505050565b815f5f90505f5f90505b60015f3373ffffffffffffffffffffffffffffffffffffffff1673ffffffffffffffffffffffffffffffffffffffff1681526020019081526020015f20805490508110156136b1578273ffffffffffffffffffffffffffffffffffffffff1660015f3373ffffffffffffffffffffffffffffffffffffffff1673ffffffffffffffffffffffffffffffffffffffff1681526020019081526020015f20828154811061365c5761365b614d54565b5b905f5260205f20015f9054906101000a900473ffffffffffffffffffffffffffffffffffffffff1673ffffffffffffffffffffffffffffffffffffffff16036136a457600191505b80806001019150506135ae565b505f1515811515036136ef576040517f19547e9d00000000000000000000000000000000000000000000000000000000815260040160405180910390fd5b3373ffffffffffffffffffffffffffffffffffffffff168473ffffffffffffffffffffffffffffffffffffffff160361375d576040517f08c379a0000000000000000000000000000000000000000000000000000000008152600401613754906156bc565b60405180910390fd5b5f60405180604001604052808581526020013373ffffffffffffffffffffffffffffffffffffffff16815250905060025f3373ffffffffffffffffffffffffffffffffffffffff1673ffffffffffffffffffffffffffffffffffffffff1681526020019081526020015f205f8673ffffffffffffffffffffffffffffffffffffffff1673ffffffffffffffffffffffffffffffffffffffff1681526020019081526020015f2081908060018154018082558091505060019003905f5260205f2090600202015f909190919091505f820151815f01908161383d9190614fb7565b506020820151816001015f6101000a81548173ffffffffffffffffffffffffffffffffffffffff021916908373ffffffffffffffffffffffffffffffffffffffff160217905550505060015f8673ffffffffffffffffffffffffffffffffffffffff1673ffffffffffffffffffffffffffffffffffffffff1681526020019081526020015f2033908060018154018082558091505060019003905f5260205f20015f9091909190916101000a81548173ffffffffffffffffffffffffffffffffffffffff021916908373ffffffffffffffffffffffffffffffffffffffff16021790555060025f8673ffffffffffffffffffffffffffffffffffffffff1673ffffffffffffffffffffffffffffffffffffffff1681526020019081526020015f205f3373ffffffffffffffffffffffffffffffffffffffff1673ffffffffffffffffffffffffffffffffffffffff1681526020019081526020015f2081908060018154018082558091505060019003905f5260205f2090600202015f909190919091505f820151815f0190816139d39190614fb7565b506020820151816001015f6101000a81548173ffffffffffffffffffffffffffffffffffffffff021916908373ffffffffffffffffffffffffffffffffffffffff16021790555050505050505050565b60605f805480602002602001604051908101604052809291908181526020015f905b82821015613be9578382905f5260205f2090600302016040518060600160405290815f82018054613a7590614d24565b80601f0160208091040260200160405190810160405280929190818152602001828054613aa190614d24565b8015613aec5780601f10613ac357610100808354040283529160200191613aec565b820191905f5260205f20905b815481529060010190602001808311613acf57829003601f168201915b50505050508152602001600182018054613b0590614d24565b80601f0160208091040260200160405190810160405280929190818152602001828054613b3190614d24565b8015613b7c5780601f10613b5357610100808354040283529160200191613b7c565b820191905f5260205f20905b815481529060010190602001808311613b5f57829003601f168201915b50505050508152602001600282015f9054906101000a900473ffffffffffffffffffffffffffffffffffffffff1673ffffffffffffffffffffffffffffffffffffffff1673ffffffffffffffffffffffffffffffffffffffff168152505081526020019060010190613a45565b50505050905090565b6060815f5f90505f5f90505b60015f3373ffffffffffffffffffffffffffffffffffffffff1673ffffffffffffffffffffffffffffffffffffffff1681526020019081526020015f2080549050811015613d01578273ffffffffffffffffffffffffffffffffffffffff1660015f3373ffffffffffffffffffffffffffffffffffffffff1673ffffffffffffffffffffffffffffffffffffffff1681526020019081526020015f208281548110613cac57613cab614d54565b5b905f5260205f20015f9054906101000a900473ffffffffffffffffffffffffffffffffffffffff1673ffffffffffffffffffffffffffffffffffffffff1603613cf457600191505b8080600101915050613bfe565b505f151581151503613d3f576040517f19547e9d00000000000000000000000000000000000000000000000000000000815260040160405180910390fd5b3373ffffffffffffffffffffffffffffffffffffffff168473ffffffffffffffffffffffffffffffffffffffff1603613dad576040517f08c379a0000000000000000000000000000000000000000000000000000000008152600401613da490615724565b60405180910390fd5b60025f3373ffffffffffffffffffffffffffffffffffffffff1673ffffffffffffffffffffffffffffffffffffffff1681526020019081526020015f205f8573ffffffffffffffffffffffffffffffffffffffff1673ffffffffffffffffffffffffffffffffffffffff1681526020019081526020015f20805480602002602001604051908101604052809291908181526020015f905b82821015613f58578382905f5260205f2090600202016040518060400160405290815f82018054613e7490614d24565b80601f0160208091040260200160405190810160405280929190818152602001828054613ea090614d24565b8015613eeb5780601f10613ec257610100808354040283529160200191613eeb565b820191905f5260205f20905b815481529060010190602001808311613ece57829003601f168201915b50505050508152602001600182015f9054906101000a900473ffffffffffffffffffffffffffffffffffffffff1673ffffffffffffffffffffffffffffffffffffffff1673ffffffffffffffffffffffffffffffffffffffff168152505081526020019060010190613e44565b5050505092505050919050565b5f5f90505b600582604051613f7a9190614ce1565b90815260200160405180910390208054905081101561423f5733604051602001613fa49190615161565b60405160208183030381529060405280519060200120600583604051613fca9190614ce1565b90815260200160405180910390208281548110613fea57613fe9614d54565b5b905f5260205f20015f9054906101000a900473ffffffffffffffffffffffffffffffffffffffff166040516020016140229190615161565b60405160208183030381529060405280519060200120036142325760058260405161404d9190614ce1565b9081526020016040518091039020818154811061406d5761406c614d54565b5b905f5260205f20015f6101000a81549073ffffffffffffffffffffffffffffffffffffffff021916905560016005836040516140a99190614ce1565b9081526020016040518091039020805490506140c59190615236565b8110156141cc575f60016005846040516140df9190614ce1565b9081526020016040518091039020805490506140fb9190615236565b905060058360405161410d9190614ce1565b9081526020016040518091039020818154811061412d5761412c614d54565b5b905f5260205f20015f9054906101000a900473ffffffffffffffffffffffffffffffffffffffff166005846040516141659190614ce1565b9081526020016040518091039020838154811061418557614184614d54565b5b905f5260205f20015f6101000a81548173ffffffffffffffffffffffffffffffffffffffff021916908373ffffffffffffffffffffffffffffffffffffffff160217905550505b6005826040516141dc9190614ce1565b90815260200160405180910390208054806141fa576141f9615363565b5b600190038181905f5260205f20015f6101000a81549073ffffffffffffffffffffffffffffffffffffffff0219169055905550614241565b8080600101915050613f6a565b505b50565b50805461425090614d24565b5f825580601f10614261575061427e565b601f0160209004905f5260205f209081019061427d91906142d5565b5b50565b5080545f8255905f5260205f209081019061429c91906142d5565b50565b604051806060016040528060608152602001606081526020015f73ffffffffffffffffffffffffffffffffffffffff1681525090565b5b808211156142ec575f815f9055506001016142d6565b5090565b5f604051905090565b5f5ffd5b5f5ffd5b5f5ffd5b5f5ffd5b5f601f19601f8301169050919050565b7f4e487b71000000000000000000000000000000000000000000000000000000005f52604160045260245ffd5b61434f82614309565b810181811067ffffffffffffffff8211171561436e5761436d614319565b5b80604052505050565b5f6143806142f0565b905061438c8282614346565b919050565b5f67ffffffffffffffff8211156143ab576143aa614319565b5b6143b482614309565b9050602081019050919050565b828183375f83830152505050565b5f6143e16143dc84614391565b614377565b9050828152602081018484840111156143fd576143fc614305565b5b6144088482856143c1565b509392505050565b5f82601f83011261442457614423614301565b5b81356144348482602086016143cf565b91505092915050565b5f60208284031215614452576144516142f9565b5b5f82013567ffffffffffffffff81111561446f5761446e6142fd565b5b61447b84828501614410565b91505092915050565b5f81519050919050565b5f82825260208201905092915050565b5f819050602082019050919050565b5f81519050919050565b5f82825260208201905092915050565b8281835e5f83830152505050565b5f6144df826144ad565b6144e981856144b7565b93506144f98185602086016144c7565b61450281614309565b840191505092915050565b5f73ffffffffffffffffffffffffffffffffffffffff82169050919050565b5f6145368261450d565b9050919050565b6145468161452c565b82525050565b5f606083015f8301518482035f86015261456682826144d5565b915050602083015161457b602086018261453d565b506040830151848203604086015261459382826144d5565b9150508091505092915050565b5f6145ab838361454c565b905092915050565b5f602082019050919050565b5f6145c982614484565b6145d3818561448e565b9350836020820285016145e58561449e565b805f5b85811015614620578484038952815161460185826145a0565b945061460c836145b3565b925060208a019950506001810190506145e8565b50829750879550505050505092915050565b5f6020820190508181035f83015261464a81846145bf565b905092915050565b5f81519050919050565b5f82825260208201905092915050565b5f819050602082019050919050565b5f606083015f8301518482035f86015261469582826144d5565b915050602083015184820360208601526146af82826144d5565b91505060408301516146c4604086018261453d565b508091505092915050565b5f6146da838361467b565b905092915050565b5f602082019050919050565b5f6146f882614652565b614702818561465c565b9350836020820285016147148561466c565b805f5b8581101561474f578484038952815161473085826146cf565b945061473b836146e2565b925060208a01995050600181019050614717565b50829750879550505050505092915050565b5f6020820190508181035f83015261477981846146ee565b905092915050565b5f5f60408385031215614797576147966142f9565b5b5f83013567ffffffffffffffff8111156147b4576147b36142fd565b5b6147c085828601614410565b925050602083013567ffffffffffffffff8111156147e1576147e06142fd565b5b6147ed85828601614410565b9150509250929050565b6148008161452c565b811461480a575f5ffd5b50565b5f8135905061481b816147f7565b92915050565b5f5f5f60608486031215614838576148376142f9565b5b5f6148458682870161480d565b935050602084013567ffffffffffffffff811115614866576148656142fd565b5b61487286828701614410565b925050604084013567ffffffffffffffff811115614893576148926142fd565b5b61489f86828701614410565b9150509250925092565b5f602082840312156148be576148bd6142f9565b5b5f6148cb8482850161480d565b91505092915050565b5f81519050919050565b5f82825260208201905092915050565b5f819050602082019050919050565b5f614908838361453d565b60208301905092915050565b5f602082019050919050565b5f61492a826148d4565b61493481856148de565b935061493f836148ee565b805f5b8381101561496f57815161495688826148fd565b975061496183614914565b925050600181019050614942565b5085935050505092915050565b5f6020820190508181035f8301526149948184614920565b905092915050565b5f5f5f606084860312156149b3576149b26142f9565b5b5f84013567ffffffffffffffff8111156149d0576149cf6142fd565b5b6149dc86828701614410565b935050602084013567ffffffffffffffff8111156149fd576149fc6142fd565b5b614a0986828701614410565b925050604084013567ffffffffffffffff811115614a2a57614a296142fd565b5b614a3686828701614410565b9150509250925092565b5f5f60408385031215614a5657614a556142f9565b5b5f614a638582860161480d565b925050602083013567ffffffffffffffff811115614a8457614a836142fd565b5b614a9085828601614410565b9150509250929050565b5f819050919050565b614aac81614a9a565b8114614ab6575f5ffd5b50565b5f81359050614ac781614aa3565b92915050565b5f60208284031215614ae257614ae16142f9565b5b5f614aef84828501614ab9565b91505092915050565b5f82825260208201905092915050565b5f614b12826144ad565b614b1c8185614af8565b9350614b2c8185602086016144c7565b614b3581614309565b840191505092915050565b614b498161452c565b82525050565b5f6060820190508181035f830152614b678186614b08565b90508181036020830152614b7b8185614b08565b9050614b8a6040830184614b40565b949350505050565b5f81519050919050565b5f82825260208201905092915050565b5f819050602082019050919050565b5f604083015f8301518482035f860152614bd582826144d5565b9150506020830151614bea602086018261453d565b508091505092915050565b5f614c008383614bbb565b905092915050565b5f602082019050919050565b5f614c1e82614b92565b614c288185614b9c565b935083602082028501614c3a85614bac565b805f5b85811015614c755784840389528151614c568582614bf5565b9450614c6183614c08565b925060208a01995050600181019050614c3d565b50829750879550505050505092915050565b5f6020820190508181035f830152614c9f8184614c14565b905092915050565b5f81905092915050565b5f614cbb826144ad565b614cc58185614ca7565b9350614cd58185602086016144c7565b80840191505092915050565b5f614cec8284614cb1565b915081905092915050565b7f4e487b71000000000000000000000000000000000000000000000000000000005f52602260045260245ffd5b5f6002820490506001821680614d3b57607f821691505b602082108103614d4e57614d4d614cf7565b5b50919050565b7f4e487b71000000000000000000000000000000000000000000000000000000005f52603260045260245ffd5b5f819050815f5260205f209050919050565b5f8154614d9f81614d24565b614da98186614ca7565b9450600182165f8114614dc35760018114614dd857614e0a565b60ff1983168652811515820286019350614e0a565b614de185614d81565b5f5b83811015614e0257815481890152600182019150602081019050614de3565b838801955050505b50505092915050565b5f614e1e8284614d93565b915081905092915050565b5f6020601f8301049050919050565b5f82821b905092915050565b5f60088302614e737fffffffffffffffffffffffffffffffffffffffffffffffffffffffffffffffff82614e38565b614e7d8683614e38565b95508019841693508086168417925050509392505050565b5f819050919050565b5f614eb8614eb3614eae84614a9a565b614e95565b614a9a565b9050919050565b5f819050919050565b614ed183614e9e565b614ee5614edd82614ebf565b848454614e44565b825550505050565b5f5f905090565b614efc614eed565b614f07818484614ec8565b505050565b5b81811015614f2a57614f1f5f82614ef4565b600181019050614f0d565b5050565b601f821115614f6f57614f4081614d81565b614f4984614e29565b81016020851015614f58578190505b614f6c614f6485614e29565b830182614f0c565b50505b505050565b5f82821c905092915050565b5f614f8f5f1984600802614f74565b1980831691505092915050565b5f614fa78383614f80565b9150826002028217905092915050565b614fc0826144ad565b67ffffffffffffffff811115614fd957614fd8614319565b5b614fe38254614d24565b614fee828285614f2e565b5f60209050601f83116001811461501f575f841561500d578287015190505b6150178582614f9c565b86555061507e565b601f19841661502d86614d81565b5f5b828110156150545784890151825560018201915060208501945060208101905061502f565b86831015615071578489015161506d601f891682614f80565b8355505b6001600288020188555050505b505050505050565b5f6040820190506150995f830185614b40565b81810360208301526150ab8184614b08565b90509392505050565b7f43616e74206d6f6469667920746865206d6573736167650000000000000000005f82015250565b5f6150e8601783614af8565b91506150f3826150b4565b602082019050919050565b5f6020820190508181035f830152615115816150dc565b9050919050565b5f8160601b9050919050565b5f6151328261511c565b9050919050565b5f61514382615128565b9050919050565b61515b6151568261452c565b615139565b82525050565b5f61516c828461514a565b60148201915081905092915050565b7f53656e646572206973206e6f74207468652063726561746f72206f66207468655f8201527f2067726f75700000000000000000000000000000000000000000000000000000602082015250565b5f6151d5602683614af8565b91506151e08261517b565b604082019050919050565b5f6020820190508181035f830152615202816151c9565b9050919050565b7f4e487b71000000000000000000000000000000000000000000000000000000005f52601160045260245ffd5b5f61524082614a9a565b915061524b83614a9a565b925082820390508181111561526357615262615209565b5b92915050565b5f8154905061527781614d24565b9050919050565b81810361528c575050615361565b61529582615269565b67ffffffffffffffff8111156152ae576152ad614319565b5b6152b88254614d24565b6152c3828285614f2e565b5f601f8311600181146152f0575f84156152de578287015490505b6152e88582614f9c565b86555061535a565b601f1984166152fe87614d81565b965061530986614d81565b5f5b828110156153305784890154825560018201915060018501945060208101905061530b565b8683101561534d5784890154615349601f891682614f80565b8355505b6001600288020188555050505b5050505050505b565b7f4e487b71000000000000000000000000000000000000000000000000000000005f52603160045260245ffd5b7f43616e742064656c65746520746865206d6573736167650000000000000000005f82015250565b5f6153c4601783614af8565b91506153cf82615390565b602082019050919050565b5f6020820190508181035f8301526153f1816153b8565b9050919050565b7f43616e2774206372656174652061206368617420776974682068696d73656c665f82015250565b5f61542c602083614af8565b9150615437826153f8565b602082019050919050565b5f6020820190508181035f83015261545981615420565b9050919050565b7f53656e646572206973206e6f7420746865206f776e6572206f662074686520675f8201527f726f757000000000000000000000000000000000000000000000000000000000602082015250565b5f6154ba602483614af8565b91506154c582615460565b604082019050919050565b5f6020820190508181035f8301526154e7816154ae565b9050919050565b7f4572726f72207768656e206368616e67696e67207468652067726f75704e616d5f8201527f6520616e642067726f75704465736372697074696f6e00000000000000000000602082015250565b5f615548603683614af8565b9150615553826154ee565b604082019050919050565b5f6020820190508181035f8301526155758161553c565b9050919050565b7f43616e74206d6f6469667920746865206d65737361676520696e2074686520675f8201527f726f757000000000000000000000000000000000000000000000000000000000602082015250565b5f6155d6602483614af8565b91506155e18261557c565b604082019050919050565b5f6020820190508181035f830152615603816155ca565b9050919050565b7f47726f757020646f6573206e6f742065786973740000000000000000000000005f82015250565b5f61563e601483614af8565b91506156498261560a565b602082019050919050565b5f6020820190508181035f83015261566b81615632565b9050919050565b7f557365722063616e74206265207468652073656e6465720000000000000000005f82015250565b5f6156a6601783614af8565b91506156b182615672565b602082019050919050565b5f6020820190508181035f8301526156d38161569a565b9050919050565b7f43616e27742073656e64206d6573736167657320746f2068696d73656c6600005f82015250565b5f61570e601e83614af8565b9150615719826156da565b602082019050919050565b5f6020820190508181035f83015261573b81615702565b905091905056fea26469706673582212205feedd0269174590d80d2a0d26a753fbdf30032eff5125a8dd95af6fc8f7ab4c64736f6c634300081c0033","linkReferences":{}},"methodIdentifiers":{"changeGroupNameAndDescription(string,string,string)":"6d5a019b","createChat(address)":"3e4835a7","createGroup(string,string)":"1e4a97dd","deleteChat(address)":"6e739dfd","deleteGroup(string)":"2e8b92a9","deleteMessage(address,string)":"85bd79b9","deleteMessageInTheGroup(string,string)":"30cdacbd","groups(uint256)":"96324bd4","joinGroup(string,string)":"db9feed4","leaveGroup(string)":"b25ed5a3","modifyMessage(address,string,string)":"237156d5","modifyMessageInTheGroup(string,string,string)":"a646e7a6","returnAllTheGroups()":"eaee16a5","returnChat(address)":"f370309d","returnGroupMessagges(string)":"03093287","returnUserChats()":"57cff607","returnUserGroups()":"1362d53d","returnUsersInAGroup(string)":"9c6df476","sendMessage(address,string)":"de6f24bb","sendMessagesInAGroup(string,string)":"1c5f90bb"},"id":0}