{"abi":[{"type":"function","name":"groups","inputs":[{"name":"","type":"uint256","internalType":"uint256"}],"outputs":[{"name":"name","type":"string","internalType":"string"},{"name":"description","type":"string","internalType":"string"},{"name":"groupOwner","type":"address","internalType":"address"}],"stateMutability":"view"},{"type":"event","name":"GroupCreated","inputs":[{"name":"owner","type":"address","indexed":false,"internalType":"address"},{"name":"name","type":"string","indexed":false,"internalType":"string"}],"anonymous":false},{"type":"event","name":"GroupDeleted","inputs":[{"name":"owner","type":"address","indexed":false,"internalType":"address"},{"name":"name","type":"string","indexed":false,"internalType":"string"}],"anonymous":false},{"type":"event","name":"UserJoinedGroup","inputs":[{"name":"joiner","type":"address","indexed":false,"internalType":"address"},{"name":"name","type":"string","indexed":false,"internalType":"string"}],"anonymous":false},{"type":"error","name":"AlreadyExistAGroupWithThatName","inputs":[]},{"type":"error","name":"CantCreateAChatWithHimself","inputs":[]},{"type":"error","name":"CantDeleteTheMessage","inputs":[]},{"type":"error","name":"CantDeleteTheMessageInTheGroup","inputs":[]},{"type":"error","name":"CantModifyTheMessage","inputs":[]},{"type":"error","name":"CantModifyTheMessageInTheGroup","inputs":[]},{"type":"error","name":"CantSendMessageInTheGroup","inputs":[]},{"type":"error","name":"CantSendMessageToHimself","inputs":[]},{"type":"error","name":"ErrorWhenChangingNameAndDescriptionGroup","inputs":[]},{"type":"error","name":"ErrorWhenModifyingMessageInGroups","inputs":[{"name":"group_","type":"string","internalType":"string"},{"name":"messageToModiy","type":"string","internalType":"string"},{"name":"newMessage","type":"string","internalType":"string"}]},{"type":"error","name":"GroupsDoesNotExist","inputs":[]},{"type":"error","name":"GroupsNotDeletable","inputs":[]},{"type":"error","name":"SenderIsNotTheOwnerOfTheGroup","inputs":[]},{"type":"error","name":"UserAlreadyInAChat","inputs":[]},{"type":"error","name":"UserCantDeleteTheChat","inputs":[]},{"type":"error","name":"UserCantJoinAGropWhenHeIsAlreadyIn","inputs":[]},{"type":"error","name":"UserCantLeaveGroup","inputs":[{"name":"sender","type":"address","internalType":"address"},{"name":"name","type":"string","internalType":"string"}]},{"type":"error","name":"UserIsNotInAChat","inputs":[]}],"bytecode":{"object":"0x6080604052348015600e575f5ffd5b506103a58061001c5f395ff3fe608060405234801561000f575f5ffd5b5060043610610029575f3560e01c806396324bd41461002d575b5f5ffd5b610047600480360381019061004291906101f5565b61005f565b604051610056939291906102cf565b60405180910390f35b5f818154811061006d575f80fd5b905f5260205f2090600302015f91509050805f01805461008c9061033f565b80601f01602080910402602001604051908101604052809291908181526020018280546100b89061033f565b80156101035780601f106100da57610100808354040283529160200191610103565b820191905f5260205f20905b8154815290600101906020018083116100e657829003601f168201915b5050505050908060010180546101189061033f565b80601f01602080910402602001604051908101604052809291908181526020018280546101449061033f565b801561018f5780601f106101665761010080835404028352916020019161018f565b820191905f5260205f20905b81548152906001019060200180831161017257829003601f168201915b505050505090806002015f9054906101000a900473ffffffffffffffffffffffffffffffffffffffff16905083565b5f5ffd5b5f819050919050565b6101d4816101c2565b81146101de575f5ffd5b50565b5f813590506101ef816101cb565b92915050565b5f6020828403121561020a576102096101be565b5b5f610217848285016101e1565b91505092915050565b5f81519050919050565b5f82825260208201905092915050565b8281835e5f83830152505050565b5f601f19601f8301169050919050565b5f61026282610220565b61026c818561022a565b935061027c81856020860161023a565b61028581610248565b840191505092915050565b5f73ffffffffffffffffffffffffffffffffffffffff82169050919050565b5f6102b982610290565b9050919050565b6102c9816102af565b82525050565b5f6060820190508181035f8301526102e78186610258565b905081810360208301526102fb8185610258565b905061030a60408301846102c0565b949350505050565b7f4e487b71000000000000000000000000000000000000000000000000000000005f52602260045260245ffd5b5f600282049050600182168061035657607f821691505b60208210810361036957610368610312565b5b5091905056fea2646970667358221220f5f9b921cda434709e6176c4b25cbd10d0af009404c6c36d4e9b7bf42d7483e464736f6c634300081c0033","linkReferences":{}},"methodIdentifiers":{"groups(uint256)":"96324bd4"},"id":20}