{"abi":[{"type":"function","name":"changeGroupNameAndDescription","inputs":[{"name":"oldName","type":"string","internalType":"string"},{"name":"_newName","type":"string","internalType":"string"},{"name":"_newDescription","type":"string","internalType":"string"}],"outputs":[],"stateMutability":"nonpayable"},{"type":"function","name":"createGroup","inputs":[{"name":"name","type":"string","internalType":"string"},{"name":"description","type":"string","internalType":"string"}],"outputs":[],"stateMutability":"nonpayable"},{"type":"function","name":"deleteGroup","inputs":[{"name":"groupToDelete","type":"string","internalType":"string"}],"outputs":[],"stateMutability":"nonpayable"},{"type":"function","name":"deleteMessageInTheGroup","inputs":[{"name":"groupToDeleteMessage","type":"string","internalType":"string"},{"name":"messageToBeDeleted","type":"string","internalType":"string"}],"outputs":[],"stateMutability":"nonpayable"},{"type":"function","name":"groups","inputs":[{"name":"","type":"uint256","internalType":"uint256"}],"outputs":[{"name":"name","type":"string","internalType":"string"},{"name":"description","type":"string","internalType":"string"},{"name":"groupOwner","type":"address","internalType":"address"}],"stateMutability":"view"},{"type":"function","name":"joinGroup","inputs":[{"name":"name","type":"string","internalType":"string"},{"name":"description","type":"string","internalType":"string"}],"outputs":[],"stateMutability":"nonpayable"},{"type":"function","name":"leaveGroup","inputs":[{"name":"name","type":"string","internalType":"string"}],"outputs":[],"stateMutability":"nonpayable"},{"type":"function","name":"modifyMessageInTheGroup","inputs":[{"name":"groupToModifyMessage","type":"string","internalType":"string"},{"name":"messageToBeModified","type":"string","internalType":"string"},{"name":"_newMessage","type":"string","internalType":"string"}],"outputs":[],"stateMutability":"nonpayable"},{"type":"function","name":"returnAllTheGroups","inputs":[],"outputs":[{"name":"","type":"tuple[]","internalType":"struct MessBlockGroups.Group[]","components":[{"name":"name","type":"string","internalType":"string"},{"name":"description","type":"string","internalType":"string"},{"name":"groupOwner","type":"address","internalType":"address"}]}],"stateMutability":"view"},{"type":"function","name":"returnGroupMessagges","inputs":[{"name":"groupToSendMessagges","type":"string","internalType":"string"}],"outputs":[{"name":"","type":"tuple[]","internalType":"struct MessBlockGroups.GroupMessages[]","components":[{"name":"groupName","type":"string","internalType":"string"},{"name":"sender","type":"address","internalType":"address"},{"name":"messages","type":"string","internalType":"string"}]}],"stateMutability":"view"},{"type":"function","name":"returnUserGroups","inputs":[],"outputs":[{"name":"","type":"tuple[]","internalType":"struct MessBlockGroups.Group[]","components":[{"name":"name","type":"string","internalType":"string"},{"name":"description","type":"string","internalType":"string"},{"name":"groupOwner","type":"address","internalType":"address"}]}],"stateMutability":"view"},{"type":"function","name":"returnUsersInAGroup","inputs":[{"name":"_group","type":"string","internalType":"string"}],"outputs":[{"name":"","type":"address[]","internalType":"address[]"}],"stateMutability":"view"},{"type":"function","name":"sendMessagesInAGroup","inputs":[{"name":"groupToSendMessagges","type":"string","internalType":"string"},{"name":"_newMessage","type":"string","internalType":"string"}],"outputs":[],"stateMutability":"nonpayable"},{"type":"event","name":"GroupCreated","inputs":[{"name":"owner","type":"address","indexed":false,"internalType":"address"},{"name":"name","type":"string","indexed":false,"internalType":"string"}],"anonymous":false},{"type":"event","name":"GroupDeleted","inputs":[{"name":"owner","type":"address","indexed":false,"internalType":"address"},{"name":"name","type":"string","indexed":false,"internalType":"string"}],"anonymous":false},{"type":"event","name":"UserJoinedGroup","inputs":[{"name":"joiner","type":"address","indexed":false,"internalType":"address"},{"name":"name","type":"string","indexed":false,"internalType":"string"}],"anonymous":false},{"type":"error","name":"AlreadyExistAGroupWithThatName","inputs":[]},{"type":"error","name":"CantDeleteTheMessageInTheGroup","inputs":[]},{"type":"error","name":"CantModifyTheMessageInTheGroup","inputs":[]},{"type":"error","name":"CantSendMessageInTheGroup","inputs":[]},{"type":"error","name":"ErrorWhenChangingNameAndDescriptionGroup","inputs":[]},{"type":"error","name":"GroupsDoesNotExist","inputs":[]},{"type":"error","name":"GroupsNotDeletable","inputs":[]},{"type":"error","name":"SenderIsNotTheOwnerOfTheGroup","inputs":[]},{"type":"error","name":"UserCantJoinAGropWhenHeIsAlreadyIn","inputs":[]},{"type":"error","name":"UserCantLeaveGroup","inputs":[{"name":"sender","type":"address","internalType":"address"},{"name":"name","type":"string","internalType":"string"}]}],"bytecode":{"object":"0x6080604052348015600e575f5ffd5b5061395a8061001c5f395ff3fe608060405234801561000f575f5ffd5b50600436106100cd575f3560e01c80636d5a019b1161008a578063a646e7a611610064578063a646e7a61461020d578063b25ed5a314610229578063db9feed414610245578063eaee16a514610261576100cd565b80636d5a019b1461018f57806396324bd4146101ab5780639c6df476146101dd576100cd565b806303093287146100d15780631362d53d146101015780631c5f90bb1461011f5780631e4a97dd1461013b5780632e8b92a91461015757806330cdacbd14610173575b5f5ffd5b6100eb60048036038101906100e69190612d13565b61027f565b6040516100f89190612f08565b60405180910390f35b61010961046d565b6040516101169190613037565b60405180910390f35b61013960048036038101906101349190613057565b610678565b005b61015560048036038101906101509190613057565b6108b7565b005b610171600480360381019061016c9190612d13565b610bd9565b005b61018d60048036038101906101889190613057565b610f4c565b005b6101a960048036038101906101a491906130cd565b61139a565b005b6101c560048036038101906101c091906131a4565b6117d5565b6040516101d493929190613226565b60405180910390f35b6101f760048036038101906101f29190612d13565b611934565b6040516102049190613311565b60405180910390f35b610227600480360381019061022291906130cd565b6119dd565b005b610243600480360381019061023e9190612d13565b611b47565b005b61025f600480360381019061025a9190613057565b611fd4565b005b61026961266c565b6040516102769190613037565b60405180910390f35b6060600282604051610291919061336b565b9081526020016040518091039020805480602002602001604051908101604052809291908181526020015f905b82821015610462578382905f5260205f2090600302016040518060600160405290815f820180546102ee906133ae565b80601f016020809104026020016040519081016040528092919081815260200182805461031a906133ae565b80156103655780601f1061033c57610100808354040283529160200191610365565b820191905f5260205f20905b81548152906001019060200180831161034857829003601f168201915b50505050508152602001600182015f9054906101000a900473ffffffffffffffffffffffffffffffffffffffff1673ffffffffffffffffffffffffffffffffffffffff1673ffffffffffffffffffffffffffffffffffffffff1681526020016002820180546103d3906133ae565b80601f01602080910402602001604051908101604052809291908181526020018280546103ff906133ae565b801561044a5780601f106104215761010080835404028352916020019161044a565b820191905f5260205f20905b81548152906001019060200180831161042d57829003601f168201915b505050505081525050815260200190600101906102be565b505050509050919050565b606060015f3373ffffffffffffffffffffffffffffffffffffffff1673ffffffffffffffffffffffffffffffffffffffff1681526020019081526020015f20805480602002602001604051908101604052809291908181526020015f905b8282101561066f578382905f5260205f2090600302016040518060600160405290815f820180546104fb906133ae565b80601f0160208091040260200160405190810160405280929190818152602001828054610527906133ae565b80156105725780601f1061054957610100808354040283529160200191610572565b820191905f5260205f20905b81548152906001019060200180831161055557829003601f168201915b5050505050815260200160018201805461058b906133ae565b80601f01602080910402602001604051908101604052809291908181526020018280546105b7906133ae565b80156106025780601f106105d957610100808354040283529160200191610602565b820191905f5260205f20905b8154815290600101906020018083116105e557829003601f168201915b50505050508152602001600282015f9054906101000a900473ffffffffffffffffffffffffffffffffffffffff1673ffffffffffffffffffffffffffffffffffffffff1673ffffffffffffffffffffffffffffffffffffffff1681525050815260200190600101906104cb565b50505050905090565b5f5f90505f5f90505b60015f3373ffffffffffffffffffffffffffffffffffffffff1673ffffffffffffffffffffffffffffffffffffffff1681526020019081526020015f208054905081101561087a57836040516020016106da919061336b565b6040516020818303038152906040528051906020012060015f3373ffffffffffffffffffffffffffffffffffffffff1673ffffffffffffffffffffffffffffffffffffffff1681526020019081526020015f20828154811061073f5761073e6133de565b5b905f5260205f2090600302015f0160405160200161075d919061349d565b604051602081830303815290604052805190602001200361086d575f60405180606001604052808681526020013373ffffffffffffffffffffffffffffffffffffffff1681526020018581525090506002856040516107bc919061336b565b908152602001604051809103902081908060018154018082558091505060019003905f5260205f2090600302015f909190919091505f820151815f0190816108049190613641565b506020820151816001015f6101000a81548173ffffffffffffffffffffffffffffffffffffffff021916908373ffffffffffffffffffffffffffffffffffffffff16021790555060408201518160020190816108609190613641565b505050600192505061087a565b8080600101915050610681565b50806108b2576040517fc604bd3c00000000000000000000000000000000000000000000000000000000815260040160405180910390fd5b505050565b5f5f90505b5f8054905081101561097a57826040516020016108d9919061336b565b604051602081830303815290604052805190602001205f8281548110610902576109016133de565b5b905f5260205f2090600302015f01604051602001610920919061349d565b604051602081830303815290604052805190602001200361096d576040517f8105347700000000000000000000000000000000000000000000000000000000815260040160405180910390fd5b80806001019150506108bc565b505f60405180606001604052808481526020018381526020013373ffffffffffffffffffffffffffffffffffffffff1681525090505f81908060018154018082558091505060019003905f5260205f2090600302015f909190919091505f820151815f0190816109ea9190613641565b506020820151816001019081610a009190613641565b506040820151816002015f6101000a81548173ffffffffffffffffffffffffffffffffffffffff021916908373ffffffffffffffffffffffffffffffffffffffff160217905550505060015f3373ffffffffffffffffffffffffffffffffffffffff1673ffffffffffffffffffffffffffffffffffffffff1681526020019081526020015f2081908060018154018082558091505060019003905f5260205f2090600302015f909190919091505f820151815f019081610ac09190613641565b506020820151816001019081610ad69190613641565b506040820151816002015f6101000a81548173ffffffffffffffffffffffffffffffffffffffff021916908373ffffffffffffffffffffffffffffffffffffffff1602179055505050600383604051610b2f919061336b565b908152602001604051809103902033908060018154018082558091505060019003905f5260205f20015f9091909190916101000a81548173ffffffffffffffffffffffffffffffffffffffff021916908373ffffffffffffffffffffffffffffffffffffffff1602179055507fc41039f832f30470d1a983be3dc26f5432197ae33f31f1170f73fccfd67439fb3384604051610bcc929190613710565b60405180910390a1505050565b5f5f90505b5f80549050811015610f165733604051602001610bfb9190613783565b604051602081830303815290604052805190602001205f8281548110610c2457610c236133de565b5b905f5260205f2090600302016002015f9054906101000a900473ffffffffffffffffffffffffffffffffffffffff16604051602001610c639190613783565b6040516020818303038152906040528051906020012014610cb0576040517f90c5307500000000000000000000000000000000000000000000000000000000815260040160405180910390fd5b81604051602001610cc1919061336b565b604051602081830303815290604052805190602001205f8281548110610cea57610ce96133de565b5b905f5260205f2090600302015f01604051602001610d08919061349d565b6040516020818303038152906040528051906020012003610f0957610d2c82611b47565b5f8181548110610d3f57610d3e6133de565b5b905f5260205f2090600302015f5f82015f610d5a9190612b1a565b600182015f610d699190612b1a565b600282015f6101000a81549073ffffffffffffffffffffffffffffffffffffffff021916905550505f60015f80549050610da391906137ca565b81548110610db457610db36133de565b5b905f5260205f2090600302015f8281548110610dd357610dd26133de565b5b905f5260205f2090600302015f8201815f019081610df19190613812565b5060018201816001019081610e069190613812565b50600282015f9054906101000a900473ffffffffffffffffffffffffffffffffffffffff16816002015f6101000a81548173ffffffffffffffffffffffffffffffffffffffff021916908373ffffffffffffffffffffffffffffffffffffffff1602179055509050505f805480610e8057610e7f6138f7565b5b600190038181905f5260205f2090600302015f5f82015f610ea19190612b1a565b600182015f610eb09190612b1a565b600282015f6101000a81549073ffffffffffffffffffffffffffffffffffffffff021916905550509055600382604051610eea919061336b565b90815260200160405180910390205f610f039190612b57565b50610f49565b8080600101915050610bde565b506040517f77890b0d00000000000000000000000000000000000000000000000000000000815260040160405180910390fd5b50565b5f5f90505f5f90505b600284604051610f65919061336b565b9081526020016040518091039020805490508110156113565782604051602001610f8f919061336b565b60405160208183030381529060405280519060200120600285604051610fb5919061336b565b90815260200160405180910390208281548110610fd557610fd46133de565b5b905f5260205f209060030201600201604051602001610ff4919061349d565b604051602081830303815290604052805190602001200361134957336040516020016110209190613783565b60405160208183030381529060405280519060200120600285604051611046919061336b565b90815260200160405180910390208281548110611066576110656133de565b5b905f5260205f2090600302016001015f9054906101000a900473ffffffffffffffffffffffffffffffffffffffff166040516020016110a59190613783565b60405160208183030381529060405280519060200120146110c4575f5ffd5b6002846040516110d4919061336b565b908152602001604051809103902081815481106110f4576110f36133de565b5b905f5260205f2090600302015f5f82015f61110f9190612b1a565b600182015f6101000a81549073ffffffffffffffffffffffffffffffffffffffff0219169055600282015f6111449190612b1a565b50506001600285604051611158919061336b565b90815260200160405180910390208054905061117491906137ca565b8110156112b6575f600160028660405161118e919061336b565b9081526020016040518091039020805490506111aa91906137ca565b90506002856040516111bc919061336b565b908152602001604051809103902081815481106111dc576111db6133de565b5b905f5260205f2090600302016002866040516111f8919061336b565b90815260200160405180910390208381548110611218576112176133de565b5b905f5260205f2090600302015f8201815f0190816112369190613812565b50600182015f9054906101000a900473ffffffffffffffffffffffffffffffffffffffff16816001015f6101000a81548173ffffffffffffffffffffffffffffffffffffffff021916908373ffffffffffffffffffffffffffffffffffffffff160217905550600282018160020190816112b09190613812565b50905050505b6002846040516112c6919061336b565b90815260200160405180910390208054806112e4576112e36138f7565b5b600190038181905f5260205f2090600302015f5f82015f6113059190612b1a565b600182015f6101000a81549073ffffffffffffffffffffffffffffffffffffffff0219169055600282015f61133a9190612b1a565b50509055600191505050611396565b8080600101915050610f55565b505f151581151503611394576040517f5b48592800000000000000000000000000000000000000000000000000000000815260040160405180910390fd5b505b5050565b5f5f90505f5f90505b5f80549050811015611791575f5f90505b60015f3373ffffffffffffffffffffffffffffffffffffffff1673ffffffffffffffffffffffffffffffffffffffff1681526020019081526020015f2080549050811015611783573360405160200161140d9190613783565b604051602081830303815290604052805190602001205f8381548110611436576114356133de565b5b905f5260205f2090600302016002015f9054906101000a900473ffffffffffffffffffffffffffffffffffffffff166040516020016114759190613783565b60405160208183030381529060405280519060200120146114c2576040517f90c5307500000000000000000000000000000000000000000000000000000000815260040160405180910390fd5b856040516020016114d3919061336b565b604051602081830303815290604052805190602001205f83815481106114fc576114fb6133de565b5b905f5260205f2090600302015f0160405160200161151a919061349d565b6040516020818303038152906040528051906020012003611776575f60405180606001604052808781526020018681526020013373ffffffffffffffffffffffffffffffffffffffff168152509050805f848154811061157d5761157c6133de565b5b905f5260205f2090600302015f820151815f01908161159c9190613641565b5060208201518160010190816115b29190613641565b506040820151816002015f6101000a81548173ffffffffffffffffffffffffffffffffffffffff021916908373ffffffffffffffffffffffffffffffffffffffff1602179055509050508060015f3373ffffffffffffffffffffffffffffffffffffffff1673ffffffffffffffffffffffffffffffffffffffff1681526020019081526020015f20838154811061164c5761164b6133de565b5b905f5260205f2090600302015f820151815f01908161166b9190613641565b5060208201518160010190816116819190613641565b506040820151816002015f6101000a81548173ffffffffffffffffffffffffffffffffffffffff021916908373ffffffffffffffffffffffffffffffffffffffff1602179055509050506003876040516116db919061336b565b90815260200160405180910390205f6116f49190612b57565b600386604051611704919061336b565b908152602001604051809103902033908060018154018082558091505060019003905f5260205f20015f9091909190916101000a81548173ffffffffffffffffffffffffffffffffffffffff021916908373ffffffffffffffffffffffffffffffffffffffff16021790555060019350505b80806001019150506113b4565b5080806001019150506113a3565b505f1515811515036117cf576040517ff8fe104400000000000000000000000000000000000000000000000000000000815260040160405180910390fd5b50505050565b5f81815481106117e3575f80fd5b905f5260205f2090600302015f91509050805f018054611802906133ae565b80601f016020809104026020016040519081016040528092919081815260200182805461182e906133ae565b80156118795780601f1061185057610100808354040283529160200191611879565b820191905f5260205f20905b81548152906001019060200180831161185c57829003601f168201915b50505050509080600101805461188e906133ae565b80601f01602080910402602001604051908101604052809291908181526020018280546118ba906133ae565b80156119055780601f106118dc57610100808354040283529160200191611905565b820191905f5260205f20905b8154815290600101906020018083116118e857829003601f168201915b505050505090806002015f9054906101000a900473ffffffffffffffffffffffffffffffffffffffff16905083565b6060600382604051611946919061336b565b90815260200160405180910390208054806020026020016040519081016040528092919081815260200182805480156119d157602002820191905f5260205f20905b815f9054906101000a900473ffffffffffffffffffffffffffffffffffffffff1673ffffffffffffffffffffffffffffffffffffffff1681526020019060010190808311611988575b50505050509050919050565b5f5f90505f5f90505b6002856040516119f6919061336b565b908152602001604051809103902080549050811015611b035783604051602001611a20919061336b565b60405160208183030381529060405280519060200120600286604051611a46919061336b565b90815260200160405180910390208281548110611a6657611a656133de565b5b905f5260205f209060030201600201604051602001611a85919061349d565b6040516020818303038152906040528051906020012003611af65782600286604051611ab1919061336b565b90815260200160405180910390208281548110611ad157611ad06133de565b5b905f5260205f2090600302016002019081611aec9190613641565b5060019150611b03565b80806001019150506119e6565b505f151581151503611b41576040517f67a2b86c00000000000000000000000000000000000000000000000000000000815260040160405180910390fd5b50505050565b611b508161283b565b5f5f90505b60015f3373ffffffffffffffffffffffffffffffffffffffff1673ffffffffffffffffffffffffffffffffffffffff1681526020019081526020015f2080549050811015611f915781604051602001611bae919061336b565b6040516020818303038152906040528051906020012060015f3373ffffffffffffffffffffffffffffffffffffffff1673ffffffffffffffffffffffffffffffffffffffff1681526020019081526020015f208281548110611c1357611c126133de565b5b905f5260205f2090600302015f01604051602001611c31919061349d565b6040516020818303038152906040528051906020012003611f845760015f3373ffffffffffffffffffffffffffffffffffffffff1673ffffffffffffffffffffffffffffffffffffffff1681526020019081526020015f208181548110611c9b57611c9a6133de565b5b905f5260205f2090600302015f5f82015f611cb69190612b1a565b600182015f611cc59190612b1a565b600282015f6101000a81549073ffffffffffffffffffffffffffffffffffffffff021916905550506001805f3373ffffffffffffffffffffffffffffffffffffffff1673ffffffffffffffffffffffffffffffffffffffff1681526020019081526020015f2080549050611d3991906137ca565b811015611ed7575f6001805f3373ffffffffffffffffffffffffffffffffffffffff1673ffffffffffffffffffffffffffffffffffffffff1681526020019081526020015f2080549050611d8d91906137ca565b905060015f3373ffffffffffffffffffffffffffffffffffffffff1673ffffffffffffffffffffffffffffffffffffffff1681526020019081526020015f208181548110611dde57611ddd6133de565b5b905f5260205f20906003020160015f3373ffffffffffffffffffffffffffffffffffffffff1673ffffffffffffffffffffffffffffffffffffffff1681526020019081526020015f208381548110611e3957611e386133de565b5b905f5260205f2090600302015f8201815f019081611e579190613812565b5060018201816001019081611e6c9190613812565b50600282015f9054906101000a900473ffffffffffffffffffffffffffffffffffffffff16816002015f6101000a81548173ffffffffffffffffffffffffffffffffffffffff021916908373ffffffffffffffffffffffffffffffffffffffff160217905550905050505b60015f3373ffffffffffffffffffffffffffffffffffffffff1673ffffffffffffffffffffffffffffffffffffffff1681526020019081526020015f20805480611f2457611f236138f7565b5b600190038181905f5260205f2090600302015f5f82015f611f459190612b1a565b600182015f611f549190612b1a565b600282015f6101000a81549073ffffffffffffffffffffffffffffffffffffffff02191690555050905550611fd1565b8080600101915050611b55565b5033816040517f5aec1ecb000000000000000000000000000000000000000000000000000000008152600401611fc8929190613710565b60405180910390fd5b50565b5f5f9050611fe0612b75565b5f5f90505b5f805490508110156121675784604051602001612002919061336b565b604051602081830303815290604052805190602001205f828154811061202b5761202a6133de565b5b905f5260205f2090600302015f01604051602001612049919061349d565b604051602081830303815290604052805190602001201480156120d8575083604051602001612078919061336b565b604051602081830303815290604052805190602001205f82815481106120a1576120a06133de565b5b905f5260205f2090600302016001016040516020016120c0919061349d565b60405160208183030381529060405280519060200120145b1561215a5760405180606001604052808681526020018581526020015f8381548110612107576121066133de565b5b905f5260205f2090600302016002015f9054906101000a900473ffffffffffffffffffffffffffffffffffffffff1673ffffffffffffffffffffffffffffffffffffffff16815250915060019250612167565b8080600101915050611fe5565b505f60015f3373ffffffffffffffffffffffffffffffffffffffff1673ffffffffffffffffffffffffffffffffffffffff1681526020019081526020015f20805480602002602001604051908101604052809291908181526020015f905b82821015612369578382905f5260205f2090600302016040518060600160405290815f820180546121f5906133ae565b80601f0160208091040260200160405190810160405280929190818152602001828054612221906133ae565b801561226c5780601f106122435761010080835404028352916020019161226c565b820191905f5260205f20905b81548152906001019060200180831161224f57829003601f168201915b50505050508152602001600182018054612285906133ae565b80601f01602080910402602001604051908101604052809291908181526020018280546122b1906133ae565b80156122fc5780601f106122d3576101008083540402835291602001916122fc565b820191905f5260205f20905b8154815290600101906020018083116122df57829003601f168201915b50505050508152602001600282015f9054906101000a900473ffffffffffffffffffffffffffffffffffffffff1673ffffffffffffffffffffffffffffffffffffffff1673ffffffffffffffffffffffffffffffffffffffff1681525050815260200190600101906121c5565b5050505090505f5f90505b81518110156124a2578560405160200161238e919061336b565b604051602081830303815290604052805190602001208282815181106123b7576123b66133de565b5b60200260200101515f01516040516020016123d2919061336b565b6040516020818303038152906040528051906020012014801561245e575084604051602001612401919061336b565b6040516020818303038152906040528051906020012082828151811061242a576124296133de565b5b602002602001015160200151604051602001612446919061336b565b60405160208183030381529060405280519060200120145b15612495576040517f0ab954ec00000000000000000000000000000000000000000000000000000000815260040160405180910390fd5b8080600101915050612374565b50826124da576040517f07bb3bc500000000000000000000000000000000000000000000000000000000815260040160405180910390fd5b60015f3373ffffffffffffffffffffffffffffffffffffffff1673ffffffffffffffffffffffffffffffffffffffff1681526020019081526020015f2082908060018154018082558091505060019003905f5260205f2090600302015f909190919091505f820151815f0190816125519190613641565b5060208201518160010190816125679190613641565b506040820151816002015f6101000a81548173ffffffffffffffffffffffffffffffffffffffff021916908373ffffffffffffffffffffffffffffffffffffffff16021790555050506003856040516125c0919061336b565b908152602001604051809103902033908060018154018082558091505060019003905f5260205f20015f9091909190916101000a81548173ffffffffffffffffffffffffffffffffffffffff021916908373ffffffffffffffffffffffffffffffffffffffff1602179055507fe5c0a6e21f1e343dab0fdc368a66651d5a9ef3c484ef91a29ffb406488da3ce9338660405161265d929190613710565b60405180910390a15050505050565b60605f805480602002602001604051908101604052809291908181526020015f905b82821015612832578382905f5260205f2090600302016040518060600160405290815f820180546126be906133ae565b80601f01602080910402602001604051908101604052809291908181526020018280546126ea906133ae565b80156127355780601f1061270c57610100808354040283529160200191612735565b820191905f5260205f20905b81548152906001019060200180831161271857829003601f168201915b5050505050815260200160018201805461274e906133ae565b80601f016020809104026020016040519081016040528092919081815260200182805461277a906133ae565b80156127c55780601f1061279c576101008083540402835291602001916127c5565b820191905f5260205f20905b8154815290600101906020018083116127a857829003601f168201915b50505050508152602001600282015f9054906101000a900473ffffffffffffffffffffffffffffffffffffffff1673ffffffffffffffffffffffffffffffffffffffff1673ffffffffffffffffffffffffffffffffffffffff16815250508152602001906001019061268e565b50505050905090565b5f5f90505b600382604051612850919061336b565b908152602001604051809103902080549050811015612b15573360405160200161287a9190613783565b604051602081830303815290604052805190602001206003836040516128a0919061336b565b908152602001604051809103902082815481106128c0576128bf6133de565b5b905f5260205f20015f9054906101000a900473ffffffffffffffffffffffffffffffffffffffff166040516020016128f89190613783565b6040516020818303038152906040528051906020012003612b0857600382604051612923919061336b565b90815260200160405180910390208181548110612943576129426133de565b5b905f5260205f20015f6101000a81549073ffffffffffffffffffffffffffffffffffffffff0219169055600160038360405161297f919061336b565b90815260200160405180910390208054905061299b91906137ca565b811015612aa2575f60016003846040516129b5919061336b565b9081526020016040518091039020805490506129d191906137ca565b90506003836040516129e3919061336b565b90815260200160405180910390208181548110612a0357612a026133de565b5b905f5260205f20015f9054906101000a900473ffffffffffffffffffffffffffffffffffffffff16600384604051612a3b919061336b565b90815260200160405180910390208381548110612a5b57612a5a6133de565b5b905f5260205f20015f6101000a81548173ffffffffffffffffffffffffffffffffffffffff021916908373ffffffffffffffffffffffffffffffffffffffff160217905550505b600382604051612ab2919061336b565b9081526020016040518091039020805480612ad057612acf6138f7565b5b600190038181905f5260205f20015f6101000a81549073ffffffffffffffffffffffffffffffffffffffff0219169055905550612b17565b8080600101915050612840565b505b50565b508054612b26906133ae565b5f825580601f10612b375750612b54565b601f0160209004905f5260205f2090810190612b539190612bab565b5b50565b5080545f8255905f5260205f2090810190612b729190612bab565b50565b604051806060016040528060608152602001606081526020015f73ffffffffffffffffffffffffffffffffffffffff1681525090565b5b80821115612bc2575f815f905550600101612bac565b5090565b5f604051905090565b5f5ffd5b5f5ffd5b5f5ffd5b5f5ffd5b5f601f19601f8301169050919050565b7f4e487b71000000000000000000000000000000000000000000000000000000005f52604160045260245ffd5b612c2582612bdf565b810181811067ffffffffffffffff82111715612c4457612c43612bef565b5b80604052505050565b5f612c56612bc6565b9050612c628282612c1c565b919050565b5f67ffffffffffffffff821115612c8157612c80612bef565b5b612c8a82612bdf565b9050602081019050919050565b828183375f83830152505050565b5f612cb7612cb284612c67565b612c4d565b905082815260208101848484011115612cd357612cd2612bdb565b5b612cde848285612c97565b509392505050565b5f82601f830112612cfa57612cf9612bd7565b5b8135612d0a848260208601612ca5565b91505092915050565b5f60208284031215612d2857612d27612bcf565b5b5f82013567ffffffffffffffff811115612d4557612d44612bd3565b5b612d5184828501612ce6565b91505092915050565b5f81519050919050565b5f82825260208201905092915050565b5f819050602082019050919050565b5f81519050919050565b5f82825260208201905092915050565b8281835e5f83830152505050565b5f612db582612d83565b612dbf8185612d8d565b9350612dcf818560208601612d9d565b612dd881612bdf565b840191505092915050565b5f73ffffffffffffffffffffffffffffffffffffffff82169050919050565b5f612e0c82612de3565b9050919050565b612e1c81612e02565b82525050565b5f606083015f8301518482035f860152612e3c8282612dab565b9150506020830151612e516020860182612e13565b5060408301518482036040860152612e698282612dab565b9150508091505092915050565b5f612e818383612e22565b905092915050565b5f602082019050919050565b5f612e9f82612d5a565b612ea98185612d64565b935083602082028501612ebb85612d74565b805f5b85811015612ef65784840389528151612ed78582612e76565b9450612ee283612e89565b925060208a01995050600181019050612ebe565b50829750879550505050505092915050565b5f6020820190508181035f830152612f208184612e95565b905092915050565b5f81519050919050565b5f82825260208201905092915050565b5f819050602082019050919050565b5f606083015f8301518482035f860152612f6b8282612dab565b91505060208301518482036020860152612f858282612dab565b9150506040830151612f9a6040860182612e13565b508091505092915050565b5f612fb08383612f51565b905092915050565b5f602082019050919050565b5f612fce82612f28565b612fd88185612f32565b935083602082028501612fea85612f42565b805f5b8581101561302557848403895281516130068582612fa5565b945061301183612fb8565b925060208a01995050600181019050612fed565b50829750879550505050505092915050565b5f6020820190508181035f83015261304f8184612fc4565b905092915050565b5f5f6040838503121561306d5761306c612bcf565b5b5f83013567ffffffffffffffff81111561308a57613089612bd3565b5b61309685828601612ce6565b925050602083013567ffffffffffffffff8111156130b7576130b6612bd3565b5b6130c385828601612ce6565b9150509250929050565b5f5f5f606084860312156130e4576130e3612bcf565b5b5f84013567ffffffffffffffff81111561310157613100612bd3565b5b61310d86828701612ce6565b935050602084013567ffffffffffffffff81111561312e5761312d612bd3565b5b61313a86828701612ce6565b925050604084013567ffffffffffffffff81111561315b5761315a612bd3565b5b61316786828701612ce6565b9150509250925092565b5f819050919050565b61318381613171565b811461318d575f5ffd5b50565b5f8135905061319e8161317a565b92915050565b5f602082840312156131b9576131b8612bcf565b5b5f6131c684828501613190565b91505092915050565b5f82825260208201905092915050565b5f6131e982612d83565b6131f381856131cf565b9350613203818560208601612d9d565b61320c81612bdf565b840191505092915050565b61322081612e02565b82525050565b5f6060820190508181035f83015261323e81866131df565b9050818103602083015261325281856131df565b90506132616040830184613217565b949350505050565b5f81519050919050565b5f82825260208201905092915050565b5f819050602082019050919050565b5f61329d8383612e13565b60208301905092915050565b5f602082019050919050565b5f6132bf82613269565b6132c98185613273565b93506132d483613283565b805f5b838110156133045781516132eb8882613292565b97506132f6836132a9565b9250506001810190506132d7565b5085935050505092915050565b5f6020820190508181035f83015261332981846132b5565b905092915050565b5f81905092915050565b5f61334582612d83565b61334f8185613331565b935061335f818560208601612d9d565b80840191505092915050565b5f613376828461333b565b915081905092915050565b7f4e487b71000000000000000000000000000000000000000000000000000000005f52602260045260245ffd5b5f60028204905060018216806133c557607f821691505b6020821081036133d8576133d7613381565b5b50919050565b7f4e487b71000000000000000000000000000000000000000000000000000000005f52603260045260245ffd5b5f819050815f5260205f209050919050565b5f8154613429816133ae565b6134338186613331565b9450600182165f811461344d576001811461346257613494565b60ff1983168652811515820286019350613494565b61346b8561340b565b5f5b8381101561348c5781548189015260018201915060208101905061346d565b838801955050505b50505092915050565b5f6134a8828461341d565b915081905092915050565b5f6020601f8301049050919050565b5f82821b905092915050565b5f600883026134fd7fffffffffffffffffffffffffffffffffffffffffffffffffffffffffffffffff826134c2565b61350786836134c2565b95508019841693508086168417925050509392505050565b5f819050919050565b5f61354261353d61353884613171565b61351f565b613171565b9050919050565b5f819050919050565b61355b83613528565b61356f61356782613549565b8484546134ce565b825550505050565b5f5f905090565b613586613577565b613591818484613552565b505050565b5b818110156135b4576135a95f8261357e565b600181019050613597565b5050565b601f8211156135f9576135ca8161340b565b6135d3846134b3565b810160208510156135e2578190505b6135f66135ee856134b3565b830182613596565b50505b505050565b5f82821c905092915050565b5f6136195f19846008026135fe565b1980831691505092915050565b5f613631838361360a565b9150826002028217905092915050565b61364a82612d83565b67ffffffffffffffff81111561366357613662612bef565b5b61366d82546133ae565b6136788282856135b8565b5f60209050601f8311600181146136a9575f8415613697578287015190505b6136a18582613626565b865550613708565b601f1984166136b78661340b565b5f5b828110156136de578489015182556001820191506020850194506020810190506136b9565b868310156136fb57848901516136f7601f89168261360a565b8355505b6001600288020188555050505b505050505050565b5f6040820190506137235f830185613217565b818103602083015261373581846131df565b90509392505050565b5f8160601b9050919050565b5f6137548261373e565b9050919050565b5f6137658261374a565b9050919050565b61377d61377882612e02565b61375b565b82525050565b5f61378e828461376c565b60148201915081905092915050565b7f4e487b71000000000000000000000000000000000000000000000000000000005f52601160045260245ffd5b5f6137d482613171565b91506137df83613171565b92508282039050818111156137f7576137f661379d565b5b92915050565b5f8154905061380b816133ae565b9050919050565b8181036138205750506138f5565b613829826137fd565b67ffffffffffffffff81111561384257613841612bef565b5b61384c82546133ae565b6138578282856135b8565b5f601f831160018114613884575f8415613872578287015490505b61387c8582613626565b8655506138ee565b601f1984166138928761340b565b965061389d8661340b565b5f5b828110156138c45784890154825560018201915060018501945060208101905061389f565b868310156138e157848901546138dd601f89168261360a565b8355505b6001600288020188555050505b5050505050505b565b7f4e487b71000000000000000000000000000000000000000000000000000000005f52603160045260245ffdfea2646970667358221220909a28e930a6598bd81a3181a06767b7920bcc8539a023527f74ebdfc5e69fcc64736f6c634300081c0033","linkReferences":{}},"methodIdentifiers":{"changeGroupNameAndDescription(string,string,string)":"6d5a019b","createGroup(string,string)":"1e4a97dd","deleteGroup(string)":"2e8b92a9","deleteMessageInTheGroup(string,string)":"30cdacbd","groups(uint256)":"96324bd4","joinGroup(string,string)":"db9feed4","leaveGroup(string)":"b25ed5a3","modifyMessageInTheGroup(string,string,string)":"a646e7a6","returnAllTheGroups()":"eaee16a5","returnGroupMessagges(string)":"03093287","returnUserGroups()":"1362d53d","returnUsersInAGroup(string)":"9c6df476","sendMessagesInAGroup(string,string)":"1c5f90bb"},"id":21}